:1000000000000320D1010000D1230000892300005B
:100010008923000089230000892300008923000030
:10002000892300008923000089230000D1230000D8
:10003000D123000089230000D12300007923000090
:10004000D1230000D1230000D1230000D1230000E0
:10005000D1230000D1230000D1230000D1230000D0
:10006000D1230000D1230000D1230000D1230000C0
:10007000D1230000D1230000D1230000D1230000B0
:10008000D1230000D1230000D1230000D1230000A0
:10009000D1230000D1230000D1230000D123000090
:1000A000291D0000351D0000D1230000D1230000D0
:1000B000D1230000D1230000D12300005D370000D0
:1000C000D123000089380000D1230000B539000099
:1000D000D1230000AD3A0000D1230000D12300005D
:1000E000D1230000D1230000D1230000D123000040
:1000F000D1230000D1230000D1230000D123000030
:10010000D1350000E5350000F93500000D3600005E
:10011000D1230000FD280000D1230000D1230000DE
:10012000D1230000D1230000D1230000D1230000FF
:10013000D1230000D1230000D1230000D1230000EF
:100140007D340000D1230000A53B0000D123000036
:10015000D1230000D1230000D1230000D1230000CF
:10016000D1230000D1230000411D0000D123000055
:10017000D1230000D1230000D1230000D1230000AF
:10018000D1230000D1230000D1230000D12300009F
:10019000D1230000D12300009D3C0000D1230000AA
:1001A000D1230000D1230000D1230000D12300007F
:1001B000D1230000D1230000D1230000D12300006F
:1001C000D1230000D1230000D1230000D12300005F
:1001D0005C4B4CF2205210B51A804DF628121A8052
:1001E00000BF00BF02F0F8F8574B4FF030621A60C2
:1001F000564A9A60564ADA60564B4FF470021A60BB
:10020000554B564A1A60564A136813F4807304D14A
:1002100054490B604FF4A8531360534B1A781107DD
:1002200003D51A7842F008021A70504B5049AA229E
:100230001A70504A504B8B4204D252F8040F43F8C4
:10024000040BF8E74D4B4E4900228B4202D243F893
:10025000042BFAE74B494C4A002352F8230041F89B
:1002600023000133742BF8D1484B494A802103F80D
:10027000011B9342FBD1474B424A1A60464B8A22EC
:100280001A70A3F5805324225A70A0221A709A790A
:100290009207FCD59A79D406FCD4404A937903F0AE
:1002A0000C03082BFAD13E4B60221A7002331A78E5
:1002B000802AFCD1394B01221A715D225A719A7938
:1002C0009006FCD59979354A4906FBD5354B364918
:1002D00019600021596020231370937903F00C03F7
:1002E0000C2BFAD1314B324A1A60324B324A1A6027
:1002F00000225A60072243F8042C304AC3F80C2D20
:1003000062B602F08DF9174B1B68DA0705D52C4849
:1003100002F016F92B4B2C4A1A602C4B1B785B060B
:1003200009D5284C284B22689A4204D1244802F06F
:1003300007F90023236003F083FD02F053F803F074
:1003400083F9FEE70E20054030800440823F040020
:100350000100002B88ED00E0002008E0030000858C
:1003600010D0034014D0034002D0074000E0074003
:10037000AC11FF1F704C00003007FF1FAC11FF1FB6
:10038000D41CFF1F0002FF1F0000000000E400E07B
:1003900064E400E008ED00E0005006400040064044
:1003A00001E007404480044000000602048004404D
:1003B000C010070014E000E01FBF02000000202072
:1003C000A8ECC65A1CE00340A5C3945A00F00740AD
:1003D000FFFFFFFFFFFFFFFFFFFFFFFFFFFFFFFF2D
:1003E000FFFFFFFFFFFFFFFFFFFFFFFFFFFFFFFF1D
:1003F000FFFFFFFFFFFFFFFFFFFFFFFFFFFFFFFF0D
:10040000FFFFFFFFFFFFFFFFFFFFFFFFDEF9FFFF23
:1004100010B5054C237833B9044B13B10448AFF33E
:1004200000800123237010BDAC11FF1F00000000ED
:10043000744C0000084B10B51BB108490848AFF3D5
:1004400000800848036803B910BD074B002BFBD0A0
:10045000BDE81040184700BF00000000B011FF1FAA
:10046000744C0000AC11FF1F00000000F0B51C4AE6
:100470001C4B12681E88016083B004460192002064
:100480009D78019B20734FF0010E4FF448720227B4
:10049000C4F83001C4F83401C4F8380184F84001CC
:1004A00084F8410184F84201C4F84401C4F84801C9
:1004B000C4F84C01E07360612074A0616074E06175
:1004C00084F80DE0A773A4F82A6184F82C51C4F8CD
:1004D0003C21636001F0A8FC204603B0F0BD00BFE2
:1004E0007C18FF1F30480000704700BF70B4027BCB
:1004F000841800EB82020126002501EB8103E673DC
:1005000003EB830355610068DB0093FBF0F3136298
:1005100084F82C1070BC704770B5057B01681B4ACD
:10052000044604EB85051A486D6901FB05F182FB61
:100530000123CA17C2EBA3124FF47A7606FB1213FB
:1005400080FB0321DA17C2EBA112C82101FB123391
:10055000632B4FF00002CCBF114632210D2001F079
:1005600087FC227B04EB8203196A8D4203DA5A6905
:1005700001325A6170BD14440022E2735A6111467F
:100580000D20BDE8704001F073BC00BFD34D621078
:100590001F85EB512DE9F04F447B83B005190126EF
:1005A00000EB84049DF83490EE730025019465619E
:1005B000B9F1000F42D009F1FF34E4B2013A01343D
:1005C000D0F800B0DDF830E00094AC460139924636
:1005D000A846074611F8014F87F82F4012F8014F3F
:1005E00087F861401C7887F89340DEF8004087F870
:1005F000C54080F8299113F8015B1AF8016FDEF805
:10060000004094FBFBF4AD1B002DB8BF6D4294FB82
:10061000F5F487F8F7405EF8044BA045B8BFA04654
:10062000009C0CF1010CA44507F10107D2D1019AFD
:1006300098FBFBF3136203B0BDE8F08FD0F800B075
:10064000C846F4E7F8B5437B054605EB830290F80E
:100650002901566978B300240CE0114407FB1262AB
:10066000C9B21AB98E4501D34B291AD90134E4B263
:10067000A0421FD92B1993F8611093F893E093F8D7
:10068000F77093F82F3096FBF7F27145E5D9891A88
:1006900007FB1262C9B2002AE8D18E45E6D84B2981
:1006A000E4D858B201F0E4FB013495F82901E4B232
:1006B000A042DFD86B7B05EB8302116A8E421CDB04
:1006C0002B440024DC73546195F8290158B9F8BD16
:1006D00093F92F00002201F0CBFB013495F829019A
:1006E000E4B2A04208D92B1993F893104B29EFD903
:1006F0000134E4B2A042F6D8F8BD53690133536126
:10070000F8BD00BF837BC21800EB830001210023EA
:10071000D1734361036270472DE9F043DFF84490E1
:1007200083B0064600F2291500F5967400F59C7713
:100730004FF0010815F8010F01F0A0FDC0B244F818
:10074000040FD6F83C31984206DDD9F80030019309
:10075000019B85F816806361BC42EBD103B0BDE814
:10076000F08300BF7C18FF1F30B5194D41682B681E
:10077000026883B00093009B5B1A9342836010DB96
:10078000037B03440446DB7B8BB9637B2344DB7B25
:10079000A3B9A37B2344DB7B2BB92B680193019B7B
:1007A000636003B030BD2046FFF7B6FFF5E7FFF703
:1007B000B3FE637B2344DB7B002BEAD02046FFF7AC
:1007C00041FFA37B2344DB7B002BE6D0EBE700BF9C
:1007D0007C18FF1F2DE9F04F3F4D87B0002402AF7A
:1007E00015F8013FE6B2013493B9032CF8D13B4C24
:1007F000204600F0E1F920B194F814519DB1062D86
:1008000023D03748FFF7B0FF1437BD46BDE8F08F5F
:10081000012307F10C02072130483E7300F098F9DC
:1008200000232B70E1E72F4B217C1868F8602C48DF
:10083000FFF75CFE294607F10C020423204600F076
:1008400087F994F81451062DDBD1D4F81091264A7B
:10085000C7F804D04FEAE97382FB092BC3EB6B0B9B
:100860005FFA8BFB0BF1070323F00703ADEB030DDE
:100870004FEA8B0002A90A30ADEB030D02AA20F06B
:100880000700ADEB030D02ABB9F1000FADEB000DAE
:100890000DF1080A17DD114C002094F813C0257DD6
:1008A00094F8108094F811E0A67C01F8008005EB24
:1008B0000C254AF8205002F800E01E54053081450E
:1008C00004F10504E9DC8DE8000C0548FFF762FE41
:1008D000D7F804D095E700BF3714FF1FD811FF1FCA
:1008E000F812FF1F344800006766666670B472B67F
:1008F0002249234B234841250E2480220D70047089
:1009000019461A700B781E4A1806FBD51E4B1F4855
:100910001D781F4C1F490570033B247809781B780C
:10092000C3704470817062B672B61449154C41268A
:100930000F2580230E702570114613700B781B064F
:10094000FCD5114C1249134A134B247809781278BC
:100950001B78C37104714171827162B683794479E5
:10096000C1790E4A0E4D5370180240EA0440084304
:1009700014709170286070BC704700BF070002407F
:1009800000000240060002400B000240D011FF1F91
:100990000A0002400900024008000240CC11FF1F7B
:1009A000C811FF1F08B5FFF7A1FF074B01211878F9
:1009B00001F0DEFD0548064900F07AF80548BDE87B
:1009C0000840FFF79FBE00BF3807FF1FD811FF1F69
:1009D000CC11FF1FF812FF1F70B50B4E0B4D0C4CC6
:1009E000304600F01DF82A4630460A4903F016FA50
:1009F000094B20461968FFF739FD2A46204607496A
:100A0000BDE8704003F00ABAD811FF1F3007FF1F7E
:100A1000F812FF1FAD0A00003407FF1FE9040000B1
:100A2000F8B503461C4C1D4F22686168002603F888
:100A3000016BC0F80120082205465960103040F8CB
:100A4000042C3146FF2203F0E3FC154A2089A389D8
:100A500014491468DFF850E0A5F8160185F815610F
:100A600085F81A6185F81B6185F81C61A5F81831B5
:100A700040F6C4100B7843B13B789B0705D0136850
:100A8000DEF800609B1B182B03D813681B1B8342E6
:100A9000F0D92846F8BD00BF384800007819FF1F7C
:100AA0007C18FF1F6019FF1FCC1CFF1F704700BF81
:100AB0002DE9F041067804460F465EBBE368002B43
:100AC000C8BF254607DD15F8010F02F0A7FCE26854
:100AD0002B1B9A42F7DC642001F050FDE56802F020
:100AE0000BFCA8422EDBE368002B2DDD25464FF0E2
:100AF000010802F0DDFB15F8011FE3682A1B88429C
:100B000018BF4FF000089A42F3DB84F80080B8F178
:100B1000000FD4D04FF4FA7001F030FD387802F0B5
:100B20007DFC787802F07AFCB87802F077FC3B78AC
:100B300084F81A317B7884F81B31BB7884F81C3137
:100B4000BDE8F0812670B9E701232370E2E700BF1A
:100B5000F8B5064690F816011D460F46144602F0F9
:100B60005DFC96F8170102F059FC96F81A0102F0A4
:100B700055FC96F81B0102F051FC96F81C0102F09E
:100B80004DFC284602F04AFC384602F047FC4DB1C5
:100B9000013D54FA85F5013C14F8010F02F03EFCCA
:100BA000AC42F9D196F8180102F038FC96F8190118
:100BB000BDE8F84002F032BC2DE9F84F002400AF48
:100BC00080F81541054602F097FB062803DC204615
:100BD000BD46BDE8F88F02F06BFB95F816319842E0
:100BE0006E4654D102F064FB95F8173198424ED10D
:100BF00002F05EFB02F05CFB02F05AFB02F058FBD5
:100C00005FFA80F802F054FB08F1070323F00703B2
:100C1000ADEB030D834602F06FFB08F10103984230
:100C20006C4608F1FF3A32DDB8F1000F09D054FAF2
:100C30008AFA0DF1FF3902F03BFB09F8010FCA45B2
:100C4000F9D102F035FB95F8183198421FD102F026
:100C50002FFB95F81931984219D1C5F8108185F804
:100C600014B1B8F1000F0BD008F10F002844621E38
:100C700005F10F0312F8011F03F8011F9842F9D183
:100C8000012085F81501B546BD46BDE8F88F002066
:100C9000B546F9E710B5044602F032FC204610BD17
:100CA000024A0349034803F0B9B800BF3007FF1FE9
:100CB000950C00004814FF1F38B5074D074C084835
:100CC0002A46214603F0AAF82A4621460548BDE8EF
:100CD000384003F0A3B800BF3007FF1F950C000099
:100CE0005014FF1F5814FF1F024A0349034803F022
:100CF00095B800BF3007FF1F950C00006014FF1F60
:100D0000024A0349034803F089B800BF3007FF1FB8
:100D1000950C00006814FF1F024A0349034803F0C2
:100D20007DB800BF3007FF1F950C00007014FF1F37
:100D3000024A0349034803F071B800BF3007FF1FA0
:100D4000950C00007814FF1F024A0349034803F082
:100D500065B800BF3007FF1F950C00008014FF1F0F
:100D6000024A0349034803F059B800BF3007FF1F88
:100D7000950C00008814FF1F024A0349034803F042
:100D80004DB800BF3007FF1F950C00009014FF1FE7
:100D9000024A0349034803F041B800BF3007FF1F70
:100DA000950C00009814FF1F024A0349034803F002
:100DB00035B800BF3007FF1F950C0000A014FF1FBF
:100DC000024A0349034803F029B800BF3007FF1F58
:100DD000950C0000A814FF1F024A0349034803F0C2
:100DE0001DB800BF3007FF1F950C0000B014FF1F97
:100DF000704700BF00207047704700BF064B074A8E
:100E0000DA620221002259609A7083F8242083F864
:100E1000302083F832207047B814FF1FE4480000E8
:100E20002149224A0B6843F080030B601146136886
:100E3000DB07FCD40B689B07F9D41D4B30B44FF093
:100E40008072194D186000E0A2B12968194B164C48
:100E50000B40013A002BF7D062B1012B0AD1236875
:100E600013F0800F23680FD043F001132360032099
:100E700030BC70470C4A136843F4702343F00103FD
:100E80001360012030BC704713F4803305D0236811
:100E900043F0011323600520F4E7226842F00102C9
:100EA00018462260EEE700BF30100B4024100B40C4
:100EB0000C100B4001000E0070B50D4D0D480E4E8C
:100EC00000232B60FFF7ACFF6324034606E04BB919
:100ED0002B60FFF7A5FF013C034605D032680548AB
:100EE0005207F4D4184670BD002808BF052070BD15
:100EF00008100B400000DB0C24100B40F8B5384BF9
:100F00001A780AB10320F8BD5B78064603B9490296
:100F1000344D354C354B36484FF6FF774FF4813220
:100F20002F6021601A60FFF77BFF0028EBD1314B67
:100F300031491B681C3406F1400206F510702B681D
:100F4000284F43F0200613F4E00F2E603ED12368B3
:100F50001E05FCD50B6842F8403C0B6842F83C3C4F
:100F60000B6842F8383C0B6842F8343C0B6842F896
:100F7000303C0B6842F82C3C0B6842F8283C0B686C
:100F800042F8243C0B6842F8203C0B6842F81C3CB9
:100F90000B6842F8183C0B6842F8143C0B6842F8A6
:100FA000103C0B6842F80C3C0B6842F8083C0B689C
:100FB00042F8043C40328242C1D1002009490B680A
:100FC000084A9B07FBD50D4B1360F8BD43F4E003C3
:100FD00043F020033B60FFF76FFF0120EEE700BF07
:100FE0000C15FF1F30100B4008100B4004100B4075
:100FF00010003A1110100B4020100B40220000018D
:10100000F8B52B4B1A780AB10320F8BD5B7804467B
:1010100003B94902274D284E284B29484FF6FF7740
:101020004FF481322F6031601A60FFF7F9FE00281B
:10103000EBD1244B24491B682E4604F500772B681E
:101040001C4AD806FBD5336813F4E00F1AD104F11B
:10105000400254F8043B0B60A242FAD12B68DFF83F
:1010600054E043F010032B602B6813F4E00013D11D
:101070009742E4D10F490B680E4A9B07FBD5134BEF
:101080001360F8BD136843F4E00343F010031360EA
:10109000FFF712FF0120EDE7DEF8003043F4E00334
:1010A00043F01003CEF80030FFF706FF0120E1E720
:1010B0000C15FF1F30100B4008100B4004100B40A4
:1010C00000003A1810100B4020100B4012000001D5
:1010D00010B50121007801F045FA114A1378C3B127
:1010E0001049CB7A00241846147093B1DA0703D55F
:1010F0000D4AC869106018469C0703D50B4B0A6A55
:10110000C87A1A60420705D4030702D5084B8A6AD9
:101110001A6010BD074B4A6AC87A1A60F4E700BF2C
:101120002015FF1F3C07FF1F00E100E004E100E085
:101130000CE100E008E100E0234B1A781AB10078D6
:10114000002101F00FBA70B4204A2149D47A09680D
:1011500001251D70002C26D072B6D47AE6072346EE
:1011600006D51C4DD3682E683340D3612B602346CF
:10117000A50706D5184D14692E68D37A3440146239
:101180002C605C0706D5154D54692E68D37A34401F
:1011900054622C601B0705D5114C936925682B40C0
:1011A0009362236062B61368DA688A4207D00D4CF6
:1011B0001C600D4AD96041F080441C611A600078BF
:1011C000002170BC01F0CEB92015FF1F3C07FF1FA6
:1011D0001C15FF1F80E100E084E100E088E100E0F1
:1011E0008CE100E001401F0000001F80F0B4134CB0
:1011F000134A236882B01746009300984FF00046C8
:1012000080B2FF25136843F480631360D662556390
:10121000D36A002BFCDABB6BDBB2FF2B0AD023684E
:101220000193019B9BB21B1A8B42EBDB002002B0A7
:10123000F0BC7047012002B0F0BC70477C18FF1F63
:1012400000C00240F8B50D464FF4967116460446AC
:10125000FFF7CCFF284B1A684FF0004042F4806241
:1012600045F040011A60D8621A465963D36A002BD0
:10127000FCDA214918204FF000470A6826FA00F3EB
:1012800042F48062DBB20A60CF624B63CB6A002B10
:10129000FCDA083810F1080FEFD155B3082D0CBF58
:1012A0008721FF21144B1A684FF0004042F48062FE
:1012B0001A60D8621A465963D36A002BFCDA0E4AC8
:1012C000002716464FF00045FF21136843F4806362
:1012D0001360D5625163D36A002BFCDAB36BD8B2CA
:1012E0001B06607000D4F8BD0137B7F5807FECD1E4
:1012F000F8BD9521D6E700BF00C00240F0B4164CFF
:10130000164A236882B01746009300994FF00046B2
:1013100089B2FF25136843F480631360D662556376
:10132000D36A002BFCDABB6BDBB2FF2B43700BD113
:1013300023680193019B9BB25B1AB3F5967FE9DDAD
:10134000002002B0F0BC7047A3F1FE00B0FA80F0BC
:10135000400902B0F0BC70477C18FF1F00C002407B
:10136000F8B58378032B0E46044618BF4E02154687
:10137000FFF7E2FE324611212046FFF763FF18B95E
:101380002046FFF7BBFF20B92046FFF7A1FE002053
:10139000F8BD204B2049214A1A608E4659631A46EF
:1013A00059631E46596305F5FD70A91C05F5FE77C6
:1013B000D36A13F0F00FFBD0C6F834E0B36B01F83A
:1013C000013C1B1201F8023C02318F42F0D105F5BD
:1013D0000075A8420DD20F4A1646D36A13F0F00FDB
:1013E000FBD0B36B191200F8021BA84200F8013CB5
:1013F000F3D3084B0949084A196019465A63CB6A66
:10140000044A13F0F00FFAD02046936BFFF760FE0A
:101410000120F8BD00C00240FFFF009000041F80C3
:10142000F0B4314E33684FF0004743F480633360CB
:101430003D46F762344671633346511C02F2012780
:10144000E26A002AFCDA1A6811F8016C42F4806240
:101450001A60DD625E63E26A002AFCDA1A6811F83B
:10146000026B42F480628F421A60DD625E63E7D1F4
:101470001D49CA6A1C4B002AFBDA1A684FF0004566
:1014800042F48062FF241A601946DD625C63CB6A15
:10149000154A002BFBDA13684FF0004543F48063D4
:1014A000FF2413601146D5625463CB6A0E4A002BA9
:1014B000FBDA13684FF0004543F48063FF241360A8
:1014C0001146D5625463CB6A074A002BFBDA936B53
:1014D000DBB203F01F024370A2F10500B0FA80F006
:1014E0004009F0BC704700BF00C0024070B5044620
:1014F00071B18378032B0D4618BF4D021646FFF7D6
:101500001BFE2A4618212046FFF79CFE054620B107
:101510002046FFF7DDFD002070BD3246FE2120464B
:10152000FFF77EFF0028F3D04FF416712046FFF737
:101530005DFE0028ECD02A460D212046FFF782FEF2
:101540000028E5D10B4B1A684FF0004542F4806249
:10155000FF201A601946DD625863CB6A054A002BEA
:10156000FBDA936B13F0FF0FD2D12046FFF7B0FDEB
:10157000012070BD00C00240014B024A1A60704752
:101580001C15FF1F0320003838B590F90530002BDB
:1015900003DBBDE8384000F079B904460121006959
:1015A00000F0B4F9F8B1257D104B13EB45151AD0B6
:1015B000A3790F4A012B9CBFA369EB61E369126811
:1015C0006B831B0CAB8232B105F1160105F11800DB
:1015D00090472B8B6B82637903F07F036371BDE8C7
:1015E000384000F053B9002038BD00BF3015FF1F50
:1015F0002415FF1F10B500F1080204460121006AFE
:1016000000F02CFA50B1E3693BB96379A268E2615A
:1016100063F07F036371012010BD012010BD00BF86
:10162000F8B5837913B182698A4201D20020F8BDEE
:10163000022B0F4605461AD007B32B6AE9681C7CBB
:101640004A1E04F109037C1EDA40DC40A24211D993
:10165000EB69AB6005F1080606E0A968286A00F0AE
:10166000C5F9013C0028E1D03246002CF5D1EF60ED
:101670000120F8BD0029EBD0A41AEBE7AF60EF60C2
:101680000120F8BD2DE9F04F8B46817985B0012905
:101690000746019205D001233B71002005B0BDE84B
:1016A000F08F42799107F6D5530708D5FC68B969E0
:1016B0008C4200F0B480FFF7B3FF0028EBD0019B11
:1016C000FC68002B4AD0DFF8A491DFF8A4A1DDF874
:1016D0000480386A0679013E06EA542616F0FF06B1
:1016E000C4F3080443D1002C41D1B968002973D157
:1016F000FA69002A00F08380BA60C4F50075ADB2C3
:1017000045453AD9057C4169023AAA400E4416443F
:101710001FFA88F51CB9F868BA6990424FD2304672
:10172000012100F0F3F80028B5D04C4404EB050E7D
:1017300074450DD00BF1FF31621E0EF1FF3611F82A
:10174000010F02F8010F9642F9D1C4EB0E04A34435
:10175000FC68B8EB05082C44FC60BAD1BB69A34215
:1017600062D27A79BC6142F080027A7165E0C4F598
:101770000075ADB24545BA68C4D8017C4069023AEB
:101780008A400644B5F5007F1644C3D1DAF800203C
:10179000964204BF4FF0FF32CAF800202F4A10686B
:1017A0000278FE2A314633D05A46FFF79FFE0028C2
:1017B0003FF471AF0BF5007B4FF40075C8E700F004
:1017C00065F800283FF467AF2549CAF800600A7839
:1017D00042F001020A70A8E703AA00F007F9002806
:1017E0003FF45CAF386A1F4B90F82050039A4FF6D5
:1017F000F871102D18BF19468A42FFF47DAF3846A4
:10180000FFF7F8FE00283FF446AF386ABA6874E77D
:101810005846FFF7F5FBB0FA80F04009C7E7019B97
:10182000002B7FF450AF08E00F4B7A791B6823B18F
:10183000019B13B142F080027A71120709D5BB797E
:10184000002B3FF428AF3846FFF79EFE00283FF4F8
:1018500022AF019805B0BDE8F08F00BF2C15FF1F27
:101860003017FF1FF8FFFF0F2415FF1F3015FF1F54
:101870006807FF1F00B583B002AB012203F8011D0A
:101880001946FFF7FFFE03B05DF804FB70B51A4C74
:1018900023780BB9012070BD184D194B28681968C1
:1018A0000378FE2B17D0174AFFF720FE88B1164E9B
:1018B000316819B900232370012070BD28680378AE
:1018C000FE2B0FD00F4AFFF711FE10B1002333603B
:1018D000F0E7002070BD0B48FFF792FBB0FA80F0F4
:1018E0004009E3E70748FFF78BFBB0FA80F04009B7
:1018F0000028EBD1EDE700BF3017FF1F2C15FF1FAD
:101900006807FF1F3015FF1F2815FF1F70B5124D08
:101910002B6883420E4611D00446FFF7B7FF08B983
:10192000002070BD0D4B18680378FE2B0CD00C4ABC
:101930002146FFF715FD0028F2D02C60094B1978DD
:1019400031431970012070BD21460548FFF7D6FAD2
:10195000B0FA80F04009EEE76807FF1F2C15FF1F63
:101960003015FF1F3017FF1FF8B590F82030C469FD
:10197000102B1A4B05460E4617461B6816D004EB73
:10198000D1149C4216D106F07F06154A42F8267003
:101990001449287E0A78012842F001020A7018D9F9
:1019A000A968114A0B4413600120F8BD04EB11240F
:1019B0009C4208D000212046FFF7A8FF50B195F8BF
:1019C0002030102B07D1F6B2054A234622F81670B4
:1019D000DEE70120F8BD2346D5E700BF6807FF1FFB
:1019E0003015FF1F3017FF1F2815FF1FC368013375
:1019F0008B4218D370B590F82030102B154B04464D
:101A000016460D46C0691B680FD000EBD1109842F6
:101A10000FD105F07F01104B53F8213023F07043B4
:101A20003360012070BD0020704700EB1120984208
:101A300007D00021FFF76AFF50B194F82030102B37
:101A4000E7D1E9B2044B33F811303360012070BDA7
:101A5000002070BD6807FF1F3015FF1F2DE9F04FF4
:101A6000176883B06FB301374FF0000AC36803F102
:101A7000010813B38B46064691463C46002505E017
:101A80001C461F46F3680135AB4216D9A04538BF46
:101A90000224214601AA304638BF2746FFF7A6FF99
:101AA000631CD91B48B1019A002AE9D18B4510D09B
:101AB0001C46F3680135AB42E8D8002003B0BDE80E
:101AC000F08FA1F1010ABAFA8AFA07684FEA5A1AA6
:101AD000CCE7012CF1D9F36801339C42EDD86FF0CB
:101AE000704221463046FFF73FFF0028E5D0A7426D
:101AF00014D2013C012CE0D9F36801339C42DCD8BC
:101B0000621C21463046FFF72FFF0028D5D0A742A0
:101B100004F1FF3402D0012CEED1CEE7D9F8001049
:101B200059B10129C9D9F36801339942C5D83A4658
:101B30003046FFF719FF0028BFD0C9F80070BAF18E
:101B4000000F01D0013737600120B7E790F8392046
:101B500090F83800101A704790F8383090F8392013
:101B60009A4205D95A1C034480F83820187E7047E1
:101B70004FF0FF30704700BF90F8383090F83920B0
:101B80009A4286BF1B18187E4FF0FF30704700BF87
:101B9000704700BFB0F85E306BB190F85D30202B1D
:101BA00007D8C218013380F85D30012082F83B105D
:101BB0007047012303710020704700BF38B5054608
:101BC000B0F85E0090B195F85D301446C3F1210283
:101BD00094420CD805F13B001844224600F0A2F9CB
:101BE00095F85D30234485F85D30204638BD0120EE
:101BF00014462871EEE700BF38B50269D478E4B224
:101C0000E106054624D51023D37063061FD504F0E2
:101C1000040404F0FF03002C5AD042496A6E0023EA
:101C20000B7085F85D30002A66D0904795F85D30DE
:101C3000002B61D02B69D0229A702B6995F83B203C
:101C40001A712B69012285F85C200222DA7038BDF6
:101C500004F0400303F0FF00002BD8D19379DBB2EE
:101C600003F0600160294ED0937803F0100303F075
:101C7000FF01B3B114F0010437D195F85C3095F849
:101C80005D1099424BD9591C2B4485F85C1093F890
:101C90003B3013712B69D0229A702B690222DA70C3
:101CA000D5E785F86010937943F0200393712B6991
:101CB00095F839101A791F29D2B2C6D81948007878
:101CC0000028C2D06818013185F839100276BCE7C7
:101CD0002A6985F83930C02393702B69114A197924
:101CE000012111700222DA70B1E7C02393702B69D1
:101CF0001A790222DA70AAE70122002385F85D2012
:101D000085F83B3096E703F0DF039371AB6E23B1A8
:101D100085F8380095F8390098472A69A4E71471C6
:101D2000B8E700BF3117FF1F0148FFF765BF00BFCD
:101D3000D807FF1F0148FFF75FBF00BF4408FF1F20
:101D40000148FFF759BF00BF6C07FF1FF0B5334EC6
:101D500033780133DBB23370F3B1314C314B02E0F5
:101D60001033A34212D093F90020002AF8DB327816
:101D7000997A9142F4D15A78596842B9187A0A7816
:101D8000103322EA0002A3420A70ECD1F0BD1A7AA5
:101D9000087802430A70E3E7224BD97A03F5A0746E
:101DA0002746C9B9197B51B3587A9D7AC5EB000E05
:101DB000BEF1000F02B22EDDD2B29A7232B15A7861
:101DC0005968B2B91A7A087802430A701033BB42D4
:101DD000C4D0D97A0029E5D0587A9D7AC5EB000E97
:101DE000BEF1000F02B20DDD29448142E4DC0AB2EB
:101DF000E2E7187A0A7822EA00020A70E6E75A7ADD
:101E00009A72DBE7D8D0197B0029D5D0691A8142B4
:101E1000A8BF0A46D0E7F9D1CEE700BFB008FF1F40
:101E20007418FF1F3417FF1F70B50546082001F016
:101E300013FC0024802640F641720A4906710460B2
:101E400001F07CFB084B224603F5A070FF211970BE
:101E50005A705A60DA721A7310338342F7D1034B07
:101E60001D7070BD4D1D00003417FF1F3217FF1F7E
:101E7000F8B512B1264BFF221A70264B00224FF004
:101E8000FF3408E0854238D0671C0DD00132142A97
:101E900003F1100312D0002813F9095CF2DA002DC7
:101EA00030DB671C1970F1D113F9095C002DEDDAF4
:101EB00054B20132142A03F11003ECD1002825DBBF
:101EC000661C23D00B46144D144A154952F8307045
:101ED000097824012A190126285553725760517038
:101EE0001672C4B201B13146204600F03BFB2046D9
:101EF0000121BDE8F84000F03BBB074B03EB0212A9
:101F00005172F8BD651CC1D154B2D2E7F8BD00BF13
:101F1000B008FF1F3D17FF1F3417FF1FC049000007
:101F20003217FF1F844641EA000313F003036DD10B
:101F3000403A41D351F8043B40F8043B51F8043B8C
:101F400040F8043B51F8043B40F8043B51F8043B93
:101F500040F8043B51F8043B40F8043B51F8043B83
:101F600040F8043B51F8043B40F8043B51F8043B73
:101F700040F8043B51F8043B40F8043B51F8043B63
:101F800040F8043B51F8043B40F8043B51F8043B53
:101F900040F8043B51F8043B40F8043B51F8043B43
:101FA00040F8043B51F8043B40F8043B51F8043B33
:101FB00040F8043B403ABDD2303211D351F8043BD3
:101FC00040F8043B51F8043B40F8043B51F8043B13
:101FD00040F8043B51F8043B40F8043B103AEDD282
:101FE0000C3205D351F8043B40F8043B043AF9D2D3
:101FF000043208D0D2071CBF11F8013B00F8013BA6
:1020000001D30B8803806046704700BF082A13D3B2
:102010008B078DD010F003038AD0C3F10403D21ACA
:10202000DB071CBF11F8013B00F8013B80D331F8FE
:10203000023B20F8023B7BE7043AD9D3013A11F87E
:10204000013B00F8013BF9D20B7803704B784370E9
:102050008B78837060467047374A384913681B068F
:10206000FCD40B6813F08003F8D172B634490A78B7
:10207000002A5FD0334A3448F0B4344C17680668FD
:102080002568D4680C303E44143200681268304F22
:1020900035442C4420440244C2F34E022D4E2E48B7
:1020A0002E4D2F4C42F400423A60376806682D6886
:1020B0002C4A24680C303E44006812682A4F35448C
:1020C0002C4420440244C2F34E02284E2848294D95
:1020D000294C42F400423A60376806682D68274A66
:1020E00024680C303E4400681268254F35442C4467
:1020F00020440244C2F34E02224E2348234D244C76
:1021000042F400423A60376806682D68214A246824
:102110000C303E440068126835442C44204402448C
:10212000C2F34E021C4842F4004202600B7062B6D9
:10213000F0BC704762B6704724B0034024B00B4037
:102140007518FF1F38B003403CB0034040B0034057
:102150002CB0034058B003405CB0034060B0034073
:1021600064B003406CB0034030B0034038B00B4063
:102170003CB00B4040B00B4044B00B404CB00B4067
:102180002CB00B4058B00B405CB00B4060B00B4023
:1021900064B00B406CB00B4030B00B4030B42948F9
:1021A000294A2A4B2A4D6024E121047011701B78C2
:1021B000284C082B30D00A2B2748284937D00C2B25
:1021C0000CBF35225D2212232A60236002600B605F
:1021D000234B24491B78244ABBB101230B601360B5
:1021E000224B23491B78234A012B26D9042B0FD9D4
:1021F000082B1ED9102B94BF862387230B601360F6
:102200001D4B01221A7030BC70470B601360E7E76A
:1022100084230B601360F3E700F58E200F4908302C
:10222000212213232A60236002600B60D0E7392249
:10223000F7E785230B601360E2E780230B601360F0
:10224000DEE700BF0040074001400740B108FF1F24
:1022500008B003400CB0034008B00B400CB00B407A
:102260007818FF1F20B0034020B00B40B208FF1FBA
:1022700024B0034024B00B407518FF1F47282FD807
:10228000334B2DE9F0411E5CFF2E2BD0314B1B78D8
:10229000002B2AD132062CD472B62F4D2F4C2F464C
:1022A000012326602B7062B672B623681B060CD41D
:1022B0003B781BB9F4E72B78002BF1D062B601F024
:1022C000CFF972B623681806F5D5254B1B68002296
:1022D0002A7062B6234A107843FA00F0BDE8F08114
:1022E000002070470020BDE8F081FFF7B5FE320600
:1022F000D2D572B61C4DDFF87C801C4C06F040072E
:10230000FFB206F03F06D8F80030DFB123F010032B
:10231000C8F8003001232660134A2B7062B672B6EB
:10232000236819060CD413781BB9ECE72B78002B23
:10233000E9D062B601F094F972B623681B06F5D5B0
:102340000B4BC3E743F01003C8F80030E2E700BFCF
:10235000784900007518FF1F7718FF1F00B0034071
:1023600010B003407418FF1F7618FF1F00B00B4019
:1023700010B00B400CB00B40024A136801331360DD
:10238000704700BF7C18FF1F08B5104C08E0236899
:1023900059050DD423681A050FD42368DB0411D422
:1023A00023685803F3D500F0A9FA23685905F1D53D
:1023B00001F0D4F923681A05EFD501F065FA236816
:1023C000DB04EDD501F0F6FAEAE700BF3480044003
:1023D00008B5FFF7D9FF00BF014B10221A807047E4
:1023E00000200540704700BF094908B50B6830B1AF
:1023F0006A461844A2F50052904202D2086018467C
:1024000008BD01F017FD0C2303604FF0FF3008BD3D
:10241000B408FF1F084A1378802B01D000207047B2
:102420000649074B07480860002119701378802B74
:10243000FCD00120704700BF03E007404480044007
:1024400001E0074000002822094A1378012B01D03F
:102450000020704703F1804303F5FC2360211970CD
:102460001378802BFCD1034B034A1A60012070477C
:1024700003E00740448004400000060210B4114B02
:1024800053F8302092F8804234B1012379B182F8B8
:1024900080305DF8044B704703EBC0035B681A683B
:1024A00051B922F002021A605DF8044B704782F8BD
:1024B00000315DF8044B704742F003021A605DF88A
:1024C000044B7047C04900001C4A02EBC0030129BD
:1024D0005B6811D004291BD052F83000002280F82C
:1024E000802229B1022920D0032922D01A60704706
:1024F0004FF480721A60704752F830004FF4A272A5
:1025000080F880121A601A6822F020021A60704760
:1025100052F830104FF4A272012081F880021A6044
:102520001A6842F020021A60704740F203121A60E3
:1025300070474FF481721A60704700BFC0490000B5
:1025400030B4054B054D064C002210211A602A605C
:102550002060196030BC704714D0034004D00340A1
:1025600000D003403F2801D8FFF788BF704700BF65
:102570003F2801D8FFF7A8BF704700BF2DE9F843F7
:10258000054672B6224F234B234A1B683C681268EB
:1025900062B6520102D5322B88BF0134B5B3C3F500
:1025A0002F3303F21F331D4EDFF86890DFF8688089
:1025B0009B084FF47A72A6FB031302FB04F404EBAE
:1025C000930472B6D9F800103A68D8F800E062B601
:1025D000C1F52F3303F21F339B08A6FB03031EF044
:1025E000806FC4EB93034FF47A7002D0322988BF16
:1025F000013200FB0233B3F57A7F04D3013D05D0ED
:1026000004F57A74DDE701F02BF8DAE7BDE8F8832A
:102610007C18FF1F18E000E004ED00E0176CC11605
:10262000F8B54E4B4E48DFF85CC14E4C4E49DFF8D2
:1026300058E14E4E4E4D4F4F4FF000621A604FF032
:1026400080521A604FF000521A604FF080421A60B8
:102650004FF000421A600022026028234EF6FF70FD
:10266000CCF80000CEF8003023600EF5012E0B6090
:1026700033602B6006F500263B6005F50025A3625C
:1026800007F500278B6204F5012401F5012106F608
:10269000E87605F6E87507F57F6710310EF1100E44
:1026A000203433602B60CEF800303B600B60236039
:1026B000314CBB618B6109212160A7F5002704F52E
:1026C0008054203F08343A602060BB60E36047F8E4
:1026D000041C04F5FD2407F5FE27043704F2FC74FE
:1026E00022603860A360FB6044F8041C083404F6E0
:1026F000FC74C7F8FC2F2060A4F5E124A4F2DC747C
:1027000033602B60C7F8F81F21681C4841F4007142
:10271000216001681A4C0EF57F4E0EF1E80E07F5A8
:10272000883706F5803605F5803541F00071016087
:10273000CEF8002047F6FF710822396033602B6025
:102740002260FFF72BFD3220FFF718FF00F002FD9B
:102750004FF4AF70BDE8F840FFF710BF04E100E0B0
:1027600004800340148003401C8003402480034005
:102770002C800340348003400080034004800440E8
:1027800000900C40088003400C800340431E032B44
:1027900014D872B60A4951F8230068B170B4094CD4
:1027A000058834F81320466841F82360521B24F84A
:1027B000132062B670BC704762B670470020704745
:1027C000D818FF1FBC1CFF1F013803280BD872B696
:1027D000074B53F8203043B100205B680130002BD9
:1027E000FBD162B67047002070471846F9E700BF7A
:1027F0002C19FF1FF0B472B61A491B4E012311F8B1
:10280000014B194F9A00240742F0010505D556F8EF
:10281000324064B156F83520BAB10133052BEED100
:1028200062B6124B00221A70F0BC00F01BBD0F4CB8
:102830000F4D217847F8325007EB431308304A1EFA
:102840005860227062B6F0BC70470849094B0A789C
:1028500047F8353007EBC5030830013A58600A7075
:1028600062B6F0E7C04B00000000FF1F5519FF1FC4
:1028700088004000C8004000431E032B1DD81B4A9F
:10288000400140F0100030B4104472B6184CE25CC5
:10289000032A1BD8DFE802F00212151703220D8865
:1028A000E25410F0080F14BFC823882343EA0543FD
:1028B00008310360416062B630BC704708300222C4
:1028C000EDE70522EBE708300422E8E7094A52F871
:1028D000230038B1084A52F82300416042F823101F
:1028E00062B6E9E742F82310034AF7E70000FF1F4A
:1028F0006419FF1F2C19FF1F3C19FF1F2DE9F04F12
:10290000DFF804A3DFF804B387B044E0A94F4FEA2F
:10291000930807EBC809013ED9F8042003F0080327
:10292000F6B2A2F1080003F0FF04002B40F0FE8095
:1029300057F838301B0C99B222F8081C002B00F015
:10294000EC809D4B22F8064C42F8044C53F82620AC
:10295000002A00F02B82994D55F826305860984C8B
:1029600045F8260034F81630194424F8161000F003
:1029700059FC002800F01382924A934B19F0080F7B
:1029800000F1080018BF1346C9F8040047F83830B2
:1029900008238AF800309AF80040E4B260071AD59C
:1029A0008A4B1B78A3B18A490A7802F0FF0322B14F
:1029B000013BDBB20B7003B900BE86490A7802F016
:1029C000FF032AB1013BDBB20B70002B00F0BD818D
:1029D00004238AF8003004F0080303F0FF02002B00
:1029E00000F0C8809BF80030DBB21E098ED19C0835
:1029F000704F57F8342007EBC401C2F38302013A49
:102A000049680C2A00F28580DFE802F07979838337
:102A10008383838342838383070008686E4B6F4DF3
:102A20000193684B4A686E4E47F8343081B240F2E9
:102A30008164694B6A60286000220120A1421A600B
:102A40003A61BA61307000F2E380B1F5D06F80F086
:102A50002782B1F5817F00F0E08100F2C3818029F7
:102A600000F03682822940F0DE81A9885D4B01F0BA
:102A70007F01042900F2D8815B4C89000B4422704D
:102A800062701A78930740F122832070022023E2BB
:102A9000514B01931A683AB3544B514E544918881C
:102AA00034780D784028864645F0020828BF4FF05C
:102AB000400E002C84F001043470CEEB00000CBFFB
:102AC0008824C82407EBC80680B285F0010544EAD3
:102AD0000E447260188047F8384072440D70002828
:102AE00000F0B780019B1A603C4B1A88B2F5A06FCA
:102AF0000FD100219A7859703E4B1A7009E0374A7D
:102B0000108842F22102904200F0A8802D4A47F836
:102B10003420394A012313703AE72A4A2A4B19F024
:102B2000080F18BF134647F8383031E700F09AFB1A
:102B3000324A334952F82630002B00F03B81586866
:102B40008C5D42F8260003F10802C9F80420032C2A
:102B500005D8DFE804F02C02292602228A551A88BB
:102B600019F0080F0CBF8823C82343EA024347F833
:102B700038300DE7E00700F1EB80210600F12881F5
:102B8000A20706D51F4A204913780220DBB2137032
:102B90000870E30602D51C4B10221A7007B0BDE87E
:102BA000F08F04228A55DAE705228A55D7E70322F7
:102BB0008A55D4E70000FF1FD818FF1F8418FF1F95
:102BC000BC1CFF1FC8004000880040006019FF1FA8
:102BD000E918FF1F6819FF1F8018FF1F4C19FF1FFE
:102BE000E818FF1FC02007405819FF1F9418FF1F47
:102BF0005419FF1F98200740942007402C19FF1FED
:102C00006419FF1F8820074080200740902007405C
:102C100042F22104A14200F0948043D8B1F5086F3C
:102C200000F0A881B1F5106F40F0FD80B84AB94CB2
:102C3000A978117004F1800503E00834AC4200F07B
:102C40009E81236A1906F8D5606A083800F00AFBED
:102C5000F3E7BEF1400F18BF002243E7AE4ACD1D97
:102C600011F8013B02F8013FA942F9D1AB4A1268C1
:102C7000862A00F01181AA49AA4E0A78307882F09B
:102C80000105002842F002020D700CBF8821C82106
:102C900047F8321007EBC20280F0010000213070CB
:102CA000516033E742F22124A14240F0FE81DFF877
:102CB000BCC29D4B9D49AC78DCF800501D6081463C
:102CC0000C700020029080468446044694490D789A
:102CD00045F0020E07EBCE03B9F1000F5C600CBFAC
:102CE0008824C82444EA080385F0010447F83E30EC
:102CF00032700C70DFF81CE28A4BDFF82482002867
:102D000040F09880BCF1400F1BD144F0020407EB67
:102D1000C403029FDFF8FCE15F60002A40F09F805F
:102D2000020442F0880207444EF8342086F80090EE
:102D30000D703B46402804D100207D4A0199108047
:102D40000B607C4A01231370E3E600F073FB3FE65F
:102D5000704B784872491A614FF0020E80F800E01B
:102D6000754F0A70754919609960754E754D764CAE
:102D70009A610D213970FF213170DFF8F4E129707B
:102D80002270724D724A8EF800109F27012406F8B7
:102D9000047C5D600470DA6007B0BDE8F08F6D4AB6
:102DA00047F83800137801331370F1E543F8260033
:102DB000694DD4E58B5D032B67D801A252F823F04F
:102DC0009129000091290000152E00000F2E00000F
:102DD00059495C4B80220D2008701A70A2077FF5BC
:102DE000D8AECFE640F20232914240F05681A98837
:102DF00001F07F01042916D86A88A2B94E4C8900D7
:102E00000C448146217841F00201217059E70123E9
:102E10008B55BDE500238B55BAE5A98801F07F01EC
:102E2000042940F24781444B0F221A70414A012382
:102E300013706EE640287FF668AF44F002040EEB94
:102E4000C401029E4E60AAB1444A83F80090334602
:102E5000403888F8005040334EF834206DE70204C3
:102E6000029B86F8009042F0C8020D7003444EF8B1
:102E700034205FE783F80090029B304A88F80050C6
:102E8000403840334EF8342057E719F0080F0CBF94
:102E9000022303238B557BE5314A0F211170EAE6AB
:102EA000304A5468002CBED06888B5F804E003E0CE
:102EB0000C325468002CB6D013888342F8D1538862
:102EC0007345F5D1000A03280CBF2078108903E070
:102ED000254C022022706270EA88824280F00C81C8
:102EE0000F490D78402A45F0020E944607EBCE00BC
:102EF00028BF4FF0400C04EB0C0344600293CCEB72
:102F000002004FEA0C484FF001090022C824E9E60C
:102F10006019FF1F0000FF1FC31CFF1FC41CFF1F01
:102F20005419FF1FE818FF1FCC1CFF1F7819FF1F43
:102F30009418FF1F94200740C020074088004000DD
:102F40008820074080200740982007409818FF1FDE
:102F5000EC18FF1F5519FF1F8418FF1FC800400001
:102F6000E918FF1FC44B00005819FF1F7C18FF1FF2
:102F70008C200740684A694C12782270ACE7684997
:102F8000684B694A02916949694C6A4D03940596F8
:102F90004FF0000988461C4616460495206828B163
:102FA000456800F05FF92846002DF9D10023236021
:102FB000049B30681A46002342F8293028B145683E
:102FC00000F050F92846002DF9D100223260029A13
:102FD00098F800301146002241F8042B039A029120
:102FE000023B4FF0000122F81910032B07D8DFE84D
:102FF00003F0340234024FF0010388F8003009F185
:103000000109B9F1040F04F1040406F1040608F102
:103010000108C3D1484B059EDFF83091DFF83081BD
:1030200000211970012518F8013B09F8043B1A0723
:1030300018D4AC0044F0020244F00304002347F823
:10304000323047F834303D4B994505F10105EAD15E
:1030500096F8009089F0010233E64FF0000388F8FB
:103060000030CCE700F0DEF8AC0007EB451300F1D0
:103070000802002837D05A60314B47F8343000F04E
:10308000D1F844F0010307EBC30200F1080100B3DB
:1030900051602C4A47F83320CCE7B1F5A06F7FF49C
:1030A000C2AE00224FF001090BE642F221329142FA
:1030B000F7D0B8E66A88002A7FF4B5AE224C8900C2
:1030C0000C448146217821F002012170F9E50220AB
:1030D00002E7194B44F001021B7847F83200164A08
:1030E00001331370A6E7144B134A1B78AC0001336D
:1030F00047F834001370C2E74028844628BF4FF0D9
:10310000400C04EB0C03CCEB00004FEA0C4802939C
:1031100000224FF00109D9E56019FF1F5819FF1F60
:103120003C19FF1FD818FF1F2C19FF1F6419FF1F20
:10313000BC1CFF1F8418FF1F5519FF1FD420074018
:1031400088004000C8004000C0200740C42007405D
:10315000C04B00002DE9F041274C00F011FE002289
:1031600004F1880023461A605A60083383424FF006
:103170000001F8D12148224A0368DFF89CE0214E83
:10318000214D224FDFF894C0DFF8948043F4802370
:103190000360136843F04073136003238EF800301C
:1031A000A023337002F5C922C4F3072300F52830A9
:1031B0002B708030C4F3074310323B70240EFF2382
:1031C0000470134D8CF80030124888F800301370EA
:1031D000012306F8AC3C4FF400140EF8441C702692
:1031E000102107F82C3C2E70046082F8F810AEF124
:1031F000440EBDE8F08100BF0000FF1F3480044092
:1032000000D80040402107409C200740B0200740E4
:1032100035E400E004E100E044210740802007405D
:103220008820074072B60D480268B2FA82F30B2B71
:1032300010DC4FF00041D94022EA0102026062B680
:10324000074803EBC303DB00C2180021C15010463E
:103250005160704762B60020704700BFB808FF1F7A
:10326000D003FF1F0D4B0E4AC31AA2FB03231B09F9
:103270000B2B0CD80B4A127852B972B60A484FF091
:103280000041026821FA03F31A43026062B67047F4
:10329000064A1278002AF0D0FFF7ACBAD003FF1F1D
:1032A000398EE3385519FF1FB808FF1F6019FF1F3B
:1032B00038B50F4D286878B143880288C1180133AA
:1032C00093420C7A02D24380204638BDFFF7CAFFF2
:1032D000002320462B6038BD064B1B782BB1032002
:1032E000FFF754FA28600028E6D14FF0FF3038BDD0
:1032F0007419FF1F6019FF1F044B054A1B68908853
:103300001BB11A885B88D31A184470477419FF1FC1
:10331000BC1CFF1F2DE9F04FDFF8F89083B00122AD
:1033200089F80020019169B3DFF8EC80354F019EE8
:103330008346D8F80000B0B3334D4488C4F140014F
:10334000B14228BF314604EB010E00221FFA8EFE67
:103350002A70761AA0F802E000F1080251B1013C8F
:10336000224459441BF8014B02F8014F8B45F9D117
:10337000B0F802E0BEF13F0F0BD8244A05211170CE
:10338000002ED6D10198002389F8003003B0BDE8A3
:10339000F08F4022028001460420FFF76DFA0022E0
:1033A000C8F80020E9E73A7822B3194C164D4FF0DF
:1033B000010A07E0013C16D02A78A2B900F050F9C2
:1033C0003A78BAB10420FFF7FFF90728F2D889F854
:1033D00000A0FFF727FFC8F800000028ADD10D4B73
:1033E000013C1870E8D101234FF0FF302B7003B07F
:1033F000BDE8F08F00234FF0FF3089F8003003B0B4
:10340000BDE8F08F6019FF1F7019FF1F6819FF1FBB
:10341000214801006919FF1F6C19FF1F00B583B017
:1034200002AB012103F8010D1846FFF773FF03B04B
:103430005DF804FB38B50E4B1B7873B90D4C216851
:1034400061B103F0FF054B880B800420FFF714FAED
:10345000256038BD084B01221A7038BDFFF7E2FE27
:103460000028F7D00146BDE838400420FFF704BA31
:103470006919FF1F6C19FF1F6819FF1F1A491B4AA2
:103480001B48F8B50B681B4D046843F080730B6054
:10349000136843F0010313602E6814B915E06469E2
:1034A0009CB1237A002BFAD023682F681B68204632
:1034B00098472B68E188DB1B1B099AB28B42A280DC
:1034C00088BFE2806469002CEBD10A4B0A4A1B6872
:1034D00010880A4C9B1B1B0999B28342218001D999
:1034E0001180F8BDF8BD00BFFCED00E0001000E069
:1034F0007C19FF1F041000E08019FF1F8219FF1FB5
:1035000003790F2B12D80A4A10B4137072B6094906
:1035100004790A880123A34022EA03030B8062B6E0
:10352000102200235DF8044B02710360704700BF56
:103530001A8000408419FF1F704700BF0368F0B471
:10354000FBB1002501249D60DC601B4C1A601C440B
:10355000241104F130056A11032692009E60174F72
:103560000679174B47F8241002F1604202F56142D8
:1035700005F01F05012000FA05F5E6541560F0BCC2
:103580007047104C236843F40003236000BF0E4BC8
:103590000E4DA4F58734A4F59E7401261E602346C3
:1035A00004609C68002CD0D01033AB420360F8D18B
:1035B000002303601846E2E7008FFCBFBC08FF1F32
:1035C00030E400E03C800440007003404071034060
:1035D000024A034B012111601B6818470C7103401C
:1035E000BC08FF1F024A034B012111605B681847AA
:1035F0001C710340BC08FF1F024A034B01211160EC
:103600009B6818472C710340BC08FF1F024A034BFC
:1036100001211160DB6818473C710340BC08FF1FA3
:10362000F8B572B106460F4614460025336817F800
:10363000011B1B6830469847013C0544F6D12846DB
:10364000F8BD1546FBE700BF08B5FDF7ABF9FDF780
:10365000C1F800F005F8FAE700F01ABC704700BFA7
:1036600010B5224C237803B110BD01232370FFF75E
:1036700043FEA0B900F062F8B8B900F0F5F8D0B98F
:1036800000F088F9E8B900F001FA00BB00F07AFA1E
:1036900018BB00F0F3FA30BB0023237010BDFFF716
:1036A000DDFF00F04BF80028E7D000F0ABFB00F0A6
:1036B000DBF80028E4D000F0A7FB00F06BF900284D
:1036C000E1D000F0A3FB00F0E1F90028DED000F02B
:1036D0009FFB00F057FA0028DBD000F09BFB00F0C6
:1036E000CDFA0028D8D000F097FBD5E78619FF1F48
:1036F000F0B44D1E2E46002400E00134B0FBF2F37E
:1037000002FB1300092800F130078ABF3730F8B2F6
:10371000C0B206F8010F1846002BEED10A195370FB
:103720004CB1107815F8016F28700133E01A83420C
:1037300002F80169F5DB0846F0BC7047054A064B04
:1037400010781B78C0B2DBB2984238BF4030C01A44
:10375000704700BF8C19FF1F8D19FF1FF0B4384B45
:103760001A7912F0300F2CD072B6997D01F0FF0259
:1037700000293DD062B6334F334938780D78334E47
:103780001C46C0B2EDB2431C402BE17928BF002398
:10379000AB4202F1FF32C9B21CBFF154184612F01D
:1037A000FF02F0D12A4B1B68C2B23A704BB1A8425B
:1037B00036BFC5F14005401B40192728C4BF012270
:1037C0001A701F49CA78D2B2150616D452060DD502
:1037D0001B4B1B795B0609D51E4B1F491B6800223A
:1037E0000A7003B11A70164B3C22DA70F0BC7047B5
:1037F0004022D9795A7462B6E3E70B791C06E5D505
:10380000164B174E1C783378E4B2DBB29C420ED0D4
:10381000144D01E0A3420AD00133402B28BF0023FE
:103820000879E85CC0B2C871087D0728F2D9DBB21C
:10383000034933700B79180644BF7C23CB70C5E76E
:1038400000A006408C19FF1F8D19FF1FD019FF1F04
:103850008819FF1F141AFF1F101AFF1F181AFF1FC5
:10386000111AFF1F9019FF1F054A064B10781B788D
:10387000C0B2DBB2984238BF4030C01A704700BFB8
:103880008C1AFF1F211AFF1FF0B4384B1A7912F05F
:10389000300F2CD072B6997D01F0FF0200293DD087
:1038A00062B6334F334938780D78334E1C46C0B278
:1038B000EDB2431C402BE17928BF0023AB4202F15B
:1038C000FF32C9B21CBFF154184612F0FF02F0D10A
:1038D0002A4B1B68C2B23A704BB1A84236BFC5F141
:1038E0004005401B40192728C4BF01221A701F49F8
:1038F000CA78D2B2150616D452060DD51B4B1B79C9
:103900005B0609D51E4B1F491B6800220A7003B1D4
:103910001A70164B3C22DA70F0BC70474022D979FD
:103920005A7462B6E3E70B791C06E5D5164B174EC1
:103930001C783378E4B2DBB29C420ED0144D01E027
:10394000A3420AD00133282B28BF00230879E85C62
:10395000C0B2C871087D0728F2D9DBB203493370C1
:103960000B79180644BF7C23CB70C5E700B0064036
:103970008C1AFF1F211AFF1F4C1AFF1F1C1AFF1F52
:10398000901AFF1F201AFF1F941AFF1F8D1AFF1F86
:10399000241AFF1F054A064B10781B78C0B2DBB211
:1039A000984238BF4030C01A704700BF9C1AFF1FB2
:1039B0009D1AFF1F30B42B4B1A7994061FD52A4845
:1039C000DA790378294901333F2B0978C8BF0023EE
:1039D0008B42D2B203D0264CD9B2E2540170254AB0
:1039E000116861B1244A1278D2B2934236BFC2F153
:1039F00040029B1A9B18272BC4BF01230B70194A46
:103A0000D378DBB2180611D45A060DD5154B1B79A5
:103A10005B0609D5194B1A491B6800220A7003B1CD
:103A20001A70104B2C22DA7030BC704711790906DD
:103A3000EAD5144910480C780178C9B28C420DD0EF
:103A40004A1C272A84BF00210A460F4D054C98BF07
:103A5000D1B2AA5CD2B2E2710170D5E76C21D1700B
:103A6000D2E700BF00C006409C1AFF1F9D1AFF1F2F
:103A7000C81AFF1F981AFF1F091BFF1F0C1BFF1FEF
:103A8000081BFF1F101BFF1FA01AFF1F054A064B34
:103A900010781B78C0B2DBB2984238BF4030C01AF1
:103AA000704700BF181BFF1F191BFF1F30B42B4BA3
:103AB0001A7994061FD52A48DA79037829490133FF
:103AC0003F2B0978C8BF00238B42D2B203D0264CCB
:103AD000D9B2E2540170254A116861B1244A1278C2
:103AE000D2B2934236BFC2F140029B1A9B18272BD9
:103AF000C4BF01230B70194AD378DBB2180611D466
:103B00005A060DD5154B1B795B0609D5194B1A4979
:103B10001B6800220A7003B11A70104B2C22DA7055
:103B200030BC704711790906EAD5144910480C7861
:103B30000178C9B28C420DD04A1C272A84BF0021CB
:103B40000A460F4D054C98BFD1B2AA5CD2B2E271C1
:103B50000170D5E76C21D170D2E700BF00D00640DC
:103B6000181BFF1F191BFF1F441BFF1F141BFF1FE8
:103B7000851BFF1F881BFF1F841BFF1F8C1BFF1F44
:103B80001C1BFF1F054A064B10781B78C0B2DBB226
:103B9000984238BF4030C01A704700BF941BFF1FC7
:103BA000951BFF1F30B42B4B1A7994061FD52A485A
:103BB000DA790378294901333F2B0978C8BF0023FC
:103BC0008B42D2B203D0264CD9B2E2540170254ABE
:103BD000116861B1244A1278D2B2934236BFC2F161
:103BE00040029B1A9B18272BC4BF01230B70194A54
:103BF000D378DBB2180611D45A060DD5154B1B79B4
:103C00005B0609D5194B1A491B6800220A7003B1DB
:103C10001A70104B2C22DA7030BC704711790906EB
:103C2000EAD5144910480C780178C9B28C420DD0FD
:103C30004A1C272A84BF00210A460F4D054C98BF15
:103C4000D1B2AA5CD2B2E2710170D5E76C21D17019
:103C5000D2E700BF00A00E40941BFF1F951BFF1F63
:103C6000C01BFF1F901BFF1F011CFF1F041CFF1F19
:103C7000001CFF1F081CFF1F981BFF1F054A064B57
:103C800010781B78C0B2DBB2984238BF4030C01AFF
:103C9000704700BF101CFF1F111CFF1F30B42C4BBE
:103CA0005A6894021FD52B48DA6803782A490133F1
:103CB0003F2B0978C8BF00238B4204D0274CD2B2D7
:103CC000D9B2E2540170264A116861B1254A1278CE
:103CD000D2B2934236BFC2F140029B1A9B18272BE7
:103CE000C4BF01230B701A4A9368180202D55268A8
:103CF000110211D45A020DD5154B5B685B0209D530
:103D0000194B1A491B6800220A7003B11A70184B2C
:103D100000221A6030BC7047164A124910780A789F
:103D2000D2B290420DD00132272A84BF0020024631
:103D3000114D074C98BFD0B2AA5CD2B2E2600870B5
:103D4000D8E70E480A4A0024012104601160D1E737
:103D500000400C40101CFF1F111CFF1F3C1CFF1FCC
:103D60000C1CFF1F7D1CFF1F801CFF1F7C1CFF1FE6
:103D700058018843841CFF1F141CFF1F5C018843EB
:103D800010B584B072B6FEF745FB184A184B1949B6
:103D90001160702280211A701A46197013781B0660
:103DA000FCD5154B1C68FEF74FFB62B6134B9C42CB
:103DB0009CBF04EB840464002046114C01A90A2234
:103DC000FFF796FC01A92046002311F8012B0133CF
:103DD0003AB10A2B20F8022FF7D11623237004B032
:103DE00010BD5B00DBB2237004B010BD04000240C4
:103DF00000000240000007410C0002407F9698003E
:103E00005809FF1F704700BF704700BF704700BFD1
:103E1000704700BF704700BF704700BF0B460146A8
:103E2000184600F001B800BF13460A4601460220BA
:103E300000F052BB014B1868704700BF980DFF1F80
:103E400070B50F4E0F4D761BB61018BF002405D06D
:103E5000013455F8043B9847A642F9D10A4E0B4D60
:103E6000761B00F0DBFEB61018BF002406D001342C
:103E700055F8043B9847A642F9D170BD70BD00BF0C
:103E8000284C0000284C0000704C0000284C00001A
:103E9000024B0146186800F003B800BF980DFF1FE1
:103EA0002DE9F04F01F10B05162D83B0064640F2C7
:103EB0009F8035F0070500F1BF80A94200F2BC8069
:103EC00000F0F4FAB5F5FC7FC0F09C826B0A00F0BC
:103ED000BA80042B00F28381A80900F1390E4FEA61
:103EE0004E033830C44F07EB8303A3F108015C682D
:103EF000A14207D1ACE0002A80F2AC80E468A14284
:103F000000F0A680636823F003035A1B0F2AF2DD3A
:103F1000B9493C6901F1080E744500F0B38163684A
:103F200023F003035A1B0F2A00F39981002AC1F8DA
:103F300014E0C1F810E080F29E80B3F5007F80F0BD
:103F40006781DB0803F1010C01229B1002FA03F3E5
:103F50004A6851F83C80C4F8088001EBCC091A4348
:103F6000A9F10803E3604A6041F83C40C8F80C40FE
:103F7000831001249C40944200F28A80144206D1AE
:103F800020F003006400144200F10400FAD007EBB3
:103F9000C009CC468046DCF80C108C4507D173E193
:103FA000002A80F28181C9688C4500F06D814B68E0
:103FB00023F003035A1B0F2AF2DD0C46D1F80CC084
:103FC00054F8088F4B1945F001054D6042F001018E
:103FD000C8F80CC03046CCF808807B613B61C3F860
:103FE0000CE0C3F808E059609A5000F061FA1FE055
:103FF000102921D800F05AFA1025062302207E4FFE
:1040000007EB8303A3F108025C68944200F045814A
:104010006368E168A56823F00303234430465A68C7
:10402000E96042F001028D605A6000F041FA083404
:10403000204603B0BDE8F08F00240C2320463360F7
:1040400003B0BDE8F08F80234FF0400E3F2049E7DA
:1040500070465DE72344E1685A68A56842F00102B2
:10406000E96030468D605A6000F022FA083420463C
:1040700003B0BDE8F08F234430465A6842F0010295
:104080005A6000F015FA0834204603B0BDE8F08FFE
:10409000BC68636823F00308A84504D3C5EB080394
:1040A0000F2B00F38C80554BDFF860911A68D9F81C
:1040B000003001332A4404EB080A00F0608102F565
:1040C00080520F3222F47F6222F00F0211463046F6
:1040D000019200F0EFF9B0F1FF3F8346019A00F042
:1040E0005881824500F2FC80454B1968DA4511443D
:1040F000196000F05381D9F80000DFF810E10130B9
:104100001BBFCAEB0B0A5144CEF800B019601BF07C
:10411000070100F01781C1F10800C1F58051834407
:1041200008315A44C2F30B02C2EB0109494630463A
:10413000019300F0BFF9431C019B00F03F81CBEBE2
:1041400000024A4442F001021968C7F808B0494425
:10415000BC42CBF804201960DFF8A49016D0B8F167
:104160000F0F40F2FD806268A8F10C0323F00703F3
:10417000E01802F001024FF0050E1A430F2B6260A7
:10418000C0F804E0C0F808E000F21C811D4BBC68D8
:104190001A68914288BF19601B4B1A689142626885
:1041A00088BF196022F003029542A2EB050301D8F3
:1041B0000F2B04DC304600F07BF9002438E762194D
:1041C00043F0010345F0010565603046BA60536075
:1041D00000F06EF90834204603B0BDE8F08F142BD0
:1041E00071D9542B00F2A480280B00F16F0E4FEA16
:1041F0004E036E3076E600BF9C0DFF1F901CFF1F24
:10420000941CFF1F8C1CFF1F881CFF1FA811FF1F81
:104210005A0A042A5ED9142A00F2B38002F15C0122
:1042200049005B3207EB810C57F82110DFF8DC8185
:10423000ACF1080C8C4500F088804A6822F003023B
:10424000934202D289688C45F7D1D1F80CC07A68C4
:10425000C4F80CC0A160CCF80840CC6088E66319B3
:1042600042F0010745F00105656030464B610B6186
:10427000C3F80CE0C3F808E05F609A50083400F01F
:1042800017F9D5E64A6873E608F1010818F0030F3C
:104290000CF1080C7FF47FAE30E0DC68A34208BF6D
:1042A00002303FF435AEB3E60B440C465A68C96899
:1042B00054F8085F42F001025A603046E9608D60B0
:1042C00000F0F6F8B4E603F15C0E03F15B004FEA90
:1042D0004E0307E69A0902F1390149003832A1E795
:1042E000BC424A4B3FF400AF9C68626822F0030274
:1042F0005AE759F80839994540F0828010F0030FC9
:1043000000F1FF30F5D17B6823EA04037B60640091
:104310009C423FF6BDAE002C3FF4BAAE1C42404674
:104320007FF435AE64001C4200F10400FAD02EE6A2
:10433000B3F5AA7F18D8E80B00F1780E4FEA4E03C8
:104340007730CFE54FF48051EBE60121D8F8043007
:10435000921001FA02F21A43C8F80420614677E786
:104360000123CBF8043025E740F25452934220D881
:10437000A80C00F17D0E4FEA4E037C30B2E51032FE
:10438000A4E6542A26D81A0B02F16F0149006E32B6
:1043900048E7BC68626822F0030205E7CAF30B0035
:1043A00000287FF4A8AE4244BB6842F001025A6084
:1043B000ECE6FE234FF07F0E7E2093E501224FF0C6
:1043C0000009C1E604F10801304600F049F9D9F8C6
:1043D0000010DBE6B2F5AA7F05D8DA0B02F178010E
:1043E000490077321EE740F254518A4205D89A0CB0
:1043F00002F17D0149007C3214E7FE217E2211E7A3
:104400007B6884E7E808431C5B00F8E59C0DFF1F10
:1044100070B4840746D0541E002A41D0CDB2034662
:1044200002E0621EE4B3144603F8015B9A07F8D178
:10443000032C2ED9CDB245EA05250F2C45EA0545BA
:1044400019D903F110022646103E0F2E42F8105CD7
:1044500042F80C5C42F8085C42F8045C02F110027D
:10446000F2D8A4F1100222F00F0204F00F0410326F
:10447000032C13440DD91E462246043A032A46F85B
:10448000045BFAD8221F22F003020432134404F022
:1044900003042CB1C9B21C4403F8011BA342FBD195
:1044A00070BC704714460346C2E700BF704700BFA8
:1044B000704700BF38B5074C002305460846236007
:1044C000FDF792FF431C00D038BD2368002BFBD0C2
:1044D0002B6038BDD01CFF1F2DE9F047254C256807
:1044E000D5F848410646884692469946C4B3606866
:1044F0001F2817DC431C76B104EB80050122C5F8A8
:1045000088A0D4F8881182401143022EC4F8881183
:10451000C5F808911ED00230636044F82080002066
:10452000BDE8F087144B03B34FF4C870FFF7B0FC3D
:104530000446D0B1D5F84831002780E88800C5F896
:10454000484138460123C4F88871C4F88C71002EA4
:10455000E1D0D1E7D4F88C110A43C4F88C21DAE712
:1045600005F5A674C5F84841C1E74FF0FF30BDE836
:10457000F08700BF184C0000913E0000024B13B1C1
:10458000024800F005B87047000000009D4500009B
:10459000002301461A461846FFF79EBF38B5074D5F
:1045A000074C2C1BA41005D0013C55F8043D98473E
:1045B000002CF9D1BDE8384000F05ABB00000000E3
:1045C00000000000F8B5234F0C460646FFF76EFFCB
:1045D000BB685D6825F00305291B01F6EF7121F426
:1045E0007F6121F00F01A1F58054B4F5805F07DBF6
:1045F00000213046FFF75EFFBB682B44984204D091
:104600003046FFF755FF0020F8BD61423046FFF706
:1046100051FF01300DD0104BBA6819682D1B45F0C1
:1046200001053046091B55601960FFF741FF012065
:10463000F8BD00213046FFF73DFFBA68831A0F2B03
:10464000DEDD064C0449246843F00103001B53607F
:104650000860D5E79C0DFF1F941CFF1FA811FF1FCA
:10466000002945D02DE9F0410D468046FFF71EFF99
:1046700055F8047C6A4927F00103A5F10804E21803
:104680008E685068B24220F0030062D0FE0750608E
:104690000BD455F8087CE41B01F1080EA56875459C
:1046A0003B446FD0E768EF60BD6015186D68ED079B
:1046B00042D543F001026260E350B3F5007F18D2A7
:1046C000DB085A1C4D6851F83270A76001209B101E
:1046D00000FA03F301EBC2001D430838E0604D60AF
:1046E00041F83240FC604046BDE8F041FFF7E0BED3
:1046F00070475A0A042A53D89A0902F139077F00F1
:1047000002F1380501EB870051F8272044490838A9
:1047100090424DD0516821F003018B4202D2926841
:104720009042F7D1D068E060A2608460D4604046D7
:10473000BDE8F041FFF7BCBE95683A4FBD42034467
:104740003FD0D068E86043F0010285606260E350CA
:10475000B3E7FF07034407D455F8082CA41A134401
:10476000A068E268C26090602F4A126843F00100BE
:10477000934260608C60B6D32C4B40461968FFF7BB
:1047800021FFB0E711184968C90744D49168D2687D
:10479000CA60034443F0010091606060E350A2E707
:1047A000142A17D802F15C077F0002F15B05A9E724
:1047B000AA104B68012505FA02F213434B6002462A
:1047C000B1E743F001024C610C61E560A5606260F5
:1047D000E35088E7542A06D81A0B02F16F077F00CE
:1047E00002F16E058EE7B2F5AA7F06D8DA0B02F168
:1047F00078077F0002F1770584E740F25450824247
:1048000006D89A0C02F17D077F0002F17C0579E75A
:10481000FE277E2576E743F001026260E35062E7FF
:104820009C0DFF1FA40DFF1FA411FF1F901CFF1F55
:10483000232420FF04000001FFFF04000001FEFE0E
:10484000FFFF0000FEFEFFFF3C8004400010000060
:10485000041A0000FF7F00000F0E0000F10D0000A1
:104860000C0827FF00020000000200000002000008
:10487000000000000B071CFF000200000002000007
:1048800000020000000000000D0E1B0000020000EE
:1048900000020000000200000A02090614171516A3
:1048A0000F1A2D00000200000002000000020000AC
:1048B00000020000000200000002000000020000F0
:1048C00000020000000200000002000000030000DF
:1048D0000101020204040808100120000000000089
:1048E000000000007518000021360000F50D0000E2
:1048F000F90D00003480044040000000121122082D
:10490000300202050702131021072F0202050702D9
:1049100018000000348004408000000026FFFFFFE4
:10492000FF020000000025FFFFFFFF020000000063
:1049300019000000288004404000000004FFFFFF31
:10494000FF0500000000031AFFFFFF05050000003F
:104950004A0000000000000000000000951B00005D
:10496000BD1B0000F50D0000911B00004D1B000059
:10497000591B0000791B0000050E08090D0C0607E5
:104980000F0403938E8F050E08090D0C06070F0404
:10499000FFFFFFFFFFFFFF8E8F1112848586879137
:1049A000FFFFFFFFFFFFFFFFFF8A8BFFFFFFFFFF00
:1049B000FFFFFFFFFFFFFFFF0393179701811A928D
:1049C0004008FE4340A004404408FE4344A0044085
:1049D0000018FE4300C004403000FE433090044005
:1049E0003400FE43349004401C18FE431CC00440B5
:1049F0001018FE4310C004400818FE4308C00440CD
:104A00000C18FE430CC004400C10FE430CB00440D4
:104A10001010FE4310B004401810FE4318B00440BC
:104A20001C10FE431CB004401410FE4314B004409C
:104A30000418FE4304C004400010FE4300B00440CC
:104A40000008FE4300A004400408FE4304A0044004
:104A50000C08FE430CA004400808FE4308A00440D4
:104A60001418FE4314C004401818FE4318C0044034
:104A70000410FE4304B004400810FE4308B0044094
:104A80006820FE4368D004401400FE4314900440A4
:104A90003800FE43389004403C00FE433C90044004
:104AA0004000FE43409004404808FE4348A00440B4
:104AB0004C08FE434CA004402808FE4328A00440B4
:104AC0002C08FE432CA004406020FE4360D004402C
:104AD0006420FE4364D004402010FE4320B0044014
:104AE0002410FE4324B004402810FE4328B00440A4
:104AF0002C10FE432CB004404400FE43449004407C
:104B00007000FE43709004407400FE4374900440B3
:104B10006800FE43689004405008FE4350A00440E3
:104B20005808FE4358A004405C08FE435CA00440C3
:104B30005408FE4354A004402018FE4320C0044003
:104B40002418FE4324C004401008FE4310A0044073
:104B50001408FE4314A004403818FE4338C0044033
:104B60003418FE4334C004403018FE4330C00440C3
:104B70003C18FE433CC004402C18FE432CC00440AB
:104B80002820FE4328D004402C20FE432CD0044093
:104B90000020FE4300D004400420FE4304D0044023
:104BA0000820FE4308D004400C20FE430CD00440F3
:104BB0001020FE4310D004401420FE4314D00440C3
:104BC0000015191500010000CC08FF1F120000009D
:104BD00000020000F808FF1F43000000000300006F
:104BE0005409FF1F0000000001030904E008FF1F33
:104BF00000000000020309043C09FF1F0000000040
:104C0000030309045809FF1F000000000000000012
:104C100000000000000000007009FF1FF8B500BF91
:104C2000F8BC08BC9E4670477D4500003504000076
:104C3000D9090000A10C0000B90C0000E90C00002B
:104C4000010D0000190D0000310D0000490D00009C
:104C5000610D0000790D0000910D0000A90D00000C
:104C6000C10D0000D90D0000FD0D000079150000F8
:044C7000F8B500BFD4
:104C7400000000000A0000000D00000000C0024017
:104C84004848000000000000000000000000000090
:104C94000000000000000000000000000000000010
:104CA4000000000000000000FFFFFFFF5C4900005F
:104CB40000000000E80300000000000000600E4057
:104CC4003449000000000000000000000000000063
:104CD40000000000000000000000000000000000D0
:104CE40000000000000000000000000000000000C0
:104CF40000000000000000000000000000000000B0
:104D0400000000000000000000000000000000009F
:104D140000000000000000005C49000000000000EA
:104D2400E80300000000000000600640F4480000B2
:104D3400000000000000000000000000000000006F
:104D4400000000000000000000000000000000005F
:104D5400000000000000000000000000000000004F
:104D6400000000000000000000000000000000003F
:104D7400000000000000000000000000000000002F
:104D8400000000005C49000000000000E80300008F
:104D940000000000007006401449000000000000FC
:104DA40000000000000000000000000000000000FF
:104DB40000000000000000000000000000000000EF
:104DC40000000000000000000000000000000000DF
:104DD40000000000000000000000000000000000CF
:104DE40000000000000000000000000000000000BF
:104DF400FF0A0400D41CFF1FFFFFFFFF393500002A
:104E0400393500003935000039350000120101013F
:104E140002000040C01683040002010203010000E6
:104E240018035400650065006E0073007900640087
:104E3400750069006E006F0009024300020100C0A2
:104E440032090400000102020100052400100105DA
:104E54002401010104240206052406000107058239
:104E64000310004009040100020A000000070503C2
:104E740002400000070584024000000016035500AC
:104E84005300420020005300650072006900610075
:104E94006C000000040309040C030000000000007F
:104EA40000000000000000000000000000000000FE
:104EB400000000005C0CFF1FC40CFF1F2C0DFF1F23
:104EC40000000000000000000000000000000000DE
:104ED40000000000000000000000000000000000CE
:104EE40000000000000000000000000000000000BE
:104EF40000000000000000000000000000000000AE
:104F0400000000000000000000000000000000009D
:104F1400000000000000000000000000000000008D
:104F2400000000000000000000000000000000007D
:104F3400000000000000000000000000000000006D
:104F4400000000000000000000000000000000005D
:104F5400000000000000000001000000000000004C
:104F64000E33CDAB34126DE6ECDE05000B00000011
:104F7400000000000000000000000000000000002D
:104F8400000000000000000000000000000000001D
:104F9400000000000000000000000000000000000D
:104FA40000000000000000000000000000000000FD
:1052D40000000000000000007009FF1F0000000033
:1052E400000000009C0DFF1F9C0DFF1FA40DFF1F5D
:1052F400A40DFF1FAC0DFF1FAC0DFF1FB40DFF1F4E
:10530400B40DFF1FBC0DFF1FBC0DFF1FC40DFF1FFD
:10531400C40DFF1FCC0DFF1FCC0DFF1FD40DFF1FAD
:10532400D40DFF1FDC0DFF1FDC0DFF1FE40DFF1F5D
:10533400E40DFF1FEC0DFF1FEC0DFF1FF40DFF1F0D
:10534400F40DFF1FFC0DFF1FFC0DFF1F040EFF1FBC
:10535400040EFF1F0C0EFF1F0C0EFF1F140EFF1F69
:10536400140EFF1F1C0EFF1F1C0EFF1F240EFF1F19
:10537400240EFF1F2C0EFF1F2C0EFF1F340EFF1FC9
:10538400340EFF1F3C0EFF1F3C0EFF1F440EFF1F79
:10539400440EFF1F4C0EFF1F4C0EFF1F540EFF1F29
:1053A400540EFF1F5C0EFF1F5C0EFF1F640EFF1FD9
:1053B400640EFF1F6C0EFF1F6C0EFF1F740EFF1F89
:1053C400740EFF1F7C0EFF1F7C0EFF1F840EFF1F39
:1053D400840EFF1F8C0EFF1F8C0EFF1F940EFF1FE9
:1053E400940EFF1F9C0EFF1F9C0EFF1FA40EFF1F99
:1053F400A40EFF1FAC0EFF1FAC0EFF1FB40EFF1F49
:10540400B40EFF1FBC0EFF1FBC0EFF1FC40EFF1FF8
:10541400C40EFF1FCC0EFF1FCC0EFF1FD40EFF1FA8
:10542400D40EFF1FDC0EFF1FDC0EFF1FE40EFF1F58
:10543400E40EFF1FEC0EFF1FEC0EFF1FF40EFF1F08
:10544400F40EFF1FFC0EFF1FFC0EFF1F040FFF1FB7
:10545400040FFF1F0C0FFF1F0C0FFF1F140FFF1F64
:10546400140FFF1F1C0FFF1F1C0FFF1F240FFF1F14
:10547400240FFF1F2C0FFF1F2C0FFF1F340FFF1FC4
:10548400340FFF1F3C0FFF1F3C0FFF1F440FFF1F74
:10549400440FFF1F4C0FFF1F4C0FFF1F540FFF1F24
:1054A400540FFF1F5C0FFF1F5C0FFF1F640FFF1FD4
:1054B400640FFF1F6C0FFF1F6C0FFF1F740FFF1F84
:1054C400740FFF1F7C0FFF1F7C0FFF1F840FFF1F34
:1054D400840FFF1F8C0FFF1F8C0FFF1F940FFF1FE4
:1054E400940FFF1F9C0FFF1F9C0FFF1FA40FFF1F94
:1054F400A40FFF1FAC0FFF1FAC0FFF1FB40FFF1F44
:10550400B40FFF1FBC0FFF1FBC0FFF1FC40FFF1FF3
:10551400C40FFF1FCC0FFF1FCC0FFF1FD40FFF1FA3
:10552400D40FFF1FDC0FFF1FDC0FFF1FE40FFF1F53
:10553400E40FFF1FEC0FFF1FEC0FFF1FF40FFF1F03
:10554400F40FFF1FFC0FFF1FFC0FFF1F0410FF1FB2
:105554000410FF1F0C10FF1F0C10FF1F1410FF1F5F
:105564001410FF1F1C10FF1F1C10FF1F2410FF1F0F
:105574002410FF1F2C10FF1F2C10FF1F3410FF1FBF
:105584003410FF1F3C10FF1F3C10FF1F4410FF1F6F
:105594004410FF1F4C10FF1F4C10FF1F5410FF1F1F
:1055A4005410FF1F5C10FF1F5C10FF1F6410FF1FCF
:1055B4006410FF1F6C10FF1F6C10FF1F7410FF1F7F
:1055C4007410FF1F7C10FF1F7C10FF1F8410FF1F2F
:1055D4008410FF1F8C10FF1F8C10FF1F9410FF1FDF
:1055E4009410FF1F9C10FF1F9C10FF1FA410FF1F8F
:1055F400A410FF1FAC10FF1FAC10FF1FB410FF1F3F
:10560400B410FF1FBC10FF1FBC10FF1FC410FF1FEE
:10561400C410FF1FCC10FF1FCC10FF1FD410FF1F9E
:10562400D410FF1FDC10FF1FDC10FF1FE410FF1F4E
:10563400E410FF1FEC10FF1FEC10FF1FF410FF1FFE
:10564400F410FF1FFC10FF1FFC10FF1F0411FF1FAD
:105654000411FF1F0C11FF1F0C11FF1F1411FF1F5A
:105664001411FF1F1C11FF1F1C11FF1F2411FF1F0A
:105674002411FF1F2C11FF1F2C11FF1F3411FF1FBA
:105684003411FF1F3C11FF1F3C11FF1F4411FF1F6A
:105694004411FF1F4C11FF1F4C11FF1F5411FF1F1A
:1056A4005411FF1F5C11FF1F5C11FF1F6411FF1FCA
:1056B4006411FF1F6C11FF1F6C11FF1F7411FF1F7A
:1056C4007411FF1F7C11FF1F7C11FF1F8411FF1F2A
:1056D4008411FF1F8C11FF1F8C11FF1F9411FF1FDA
:0C56E4009411FF1F00000200FFFFFFFFF9
:00000001FF
