:1000000000800020BD010000ED200000A5200000C0
:10001000A5200000A5200000A5200000A5200000CC
:10002000A5200000A5200000A5200000ED20000074
:10003000ED200000A5200000ED200000952000002C
:10004000ED200000ED200000ED200000ED2000007C
:10005000ED200000ED200000ED200000ED2000006C
:10006000ED200000ED200000ED200000ED2000005C
:10007000ED200000ED200000ED200000ED2000004C
:10008000ED200000ED200000ED200000ED2000003C
:10009000ED200000ED200000ED200000ED2000002C
:1000A000511A00005D1A0000ED200000ED20000054
:1000B000ED200000ED200000ED200000ED2000000C
:1000C000ED200000ED200000ED200000ED200000FC
:1000D000ED200000ED200000ED200000ED200000EC
:1000E000ED200000ED200000ED200000ED200000DC
:1000F000ED200000A9340000ED200000D5350000FF
:10010000ED20000001370000ED200000ED20000090
:10011000ED200000ED200000ED200000ED200000AB
:10012000ED200000ED200000ED200000ED2000009B
:10013000ED200000ED200000ED200000ED2000008B
:10014000ED200000ED200000ED200000ED2000007B
:100150005133000065330000793300008D33000017
:10016000ED20000099260000ED200000ED200000A9
:10017000ED200000ED200000ED200000ED2000004B
:10018000ED200000ED200000ED200000ED2000003B
:10019000ED200000ED200000ED200000ED2000002B
:1001A000ED200000ED200000ED200000ED2000001B
:1001B000ED200000ED20000001320000564B4CF213
:1001C000205210B51A804DF628121A8000BF00BFC9
:1001D00001F090FF514B4FF010621A60504A9A6044
:1001E000504ADA60504A136813F4807304D14F49BF
:1001F0000B604FF4A85313604D4B1A78110703D5C9
:100200001A7842F008021A704A4B4B492A221A7097
:100210004A4A4B4B8B4204D252F8040F43F8040B6A
:10022000F8E7484B484900228B4202D243F8042B9E
:10023000FAE74649464A002352F8230041F82300D2
:1002400001336F2BF8D1434B434A802103F8011B44
:100250009342FBD1414B3D4A1A60414B8A221A70AE
:10026000A3F5805324225A70A0221A709A7992071B
:10027000FCD59A79D406FCD43A4A937903F00C035E
:10028000082B384BF9D103221A7140225A719A79FE
:100290009006FCD5334A9179324B4906FBD5324A58
:1002A000324911600221516020221A709A7902F0BD
:1002B0000C020C2AFAD12E4B2E4A1A602E4B2F4AD2
:1002C0001A6000225A60072243F8042C2C4AC3F813
:1002D0000C2D62B602F0B8F8144B1B68DA0705D58E
:1002E000284802F045F8284B284A1A60284B1B780A
:1002F0005B0609D5244C254B22689A4204D121483B
:1003000002F036F80023236003F0C0FA01F0F8FE93
:1003100003F05AF8FEE700BF0E200540308004408D
:10032000823F04000100002B10D0034014D0034092
:1003300002D0074000E00740E492FF1F7045000034
:100340002087FF1FE492FF1F809CFF1F0082FF1F7A
:100350000000000000E400E05FE400E008ED00E0E1
:100360000050064000400640448004400000030165
:1003700004800440C010050014E000E0FF76010096
:100380000000202075EAC65A1CE00340A5C3945A19
:1003900000F00740FFFFFFFFFFFFFFFFFFFFFFFF32
:1003A000FFFFFFFFFFFFFFFFFFFFFFFFFFFFFFFF5D
:1003B000FFFFFFFFFFFFFFFFFFFFFFFFFFFFFFFF4D
:1003C000FFFFFFFFFFFFFFFFFFFFFFFFFFFFFFFF3D
:1003D000FFFFFFFFFFFFFFFFFFFFFFFFFFFFFFFF2D
:1003E000FFFFFFFFFFFFFFFFFFFFFFFFFFFFFFFF1D
:1003F000FFFFFFFFFFFFFFFFFFFFFFFFFFFFFFFF0D
:10040000FFFFFFFFFFFFFFFFFFFFFFFFDEF9FFFF23
:1004100010B5054C237833B9044B13B10448AFF33E
:1004200000800123237010BDE492FF1F0000000034
:1004300074450000084B10B51BB108490848AFF3DC
:1004400000800848036803B910BD074B002BFBD0A0
:10045000BDE81040184700BF00000000E892FF1FF1
:1004600074450000E492FF1F00000000F0B51C4A34
:100470001C4B12681E88016083B004460192002064
:100480009D78019B20734FF0010E4FF448720227B4
:10049000C4F83001C4F83401C4F8380184F84001CC
:1004A00084F8410184F84201C4F84401C4F84801C9
:1004B000C4F84C01E07360612074A0616074E06175
:1004C00084F80DE0A773A4F82A6184F82C51C4F8CD
:1004D0003C21636001F036FB204603B0F0BD00BF55
:1004E0009C99FF1F7C420000704700BF70B4027BE4
:1004F000841800EB82020126002501EB8103E673DC
:1005000003EB830355610068DB0093FBF0F3136298
:1005100084F82C1070BC704770B5057B01681B4ACD
:10052000044604EB85051A486D6901FB05F182FB61
:100530000123CA17C2EBA3124FF47A7606FB1213FB
:1005400080FB0321DA17C2EBA112C82101FB123391
:10055000632B4FF00002CCBF114632210D2001F079
:1005600015FB227B04EB8203196A8D4203DA5A6978
:1005700001325A6170BD14440022E2735A6111467F
:100580000D20BDE8704001F001BB00BFD34D6210EB
:100590001F85EB512DE9F04F447B83B005190126EF
:1005A00000EB84049DF83490EE730025019465619E
:1005B000B9F1000F42D009F1FF34E4B2013A01343D
:1005C000D0F800B0DDF830E00094AC460139924636
:1005D000A846074611F8014F87F82F4012F8014F3F
:1005E00087F861401C7887F89340DEF8004087F870
:1005F000C54080F8299113F8015B1AF8016FDEF805
:10060000004094FBFBF4AD1B002DB8BF6D4294FB82
:10061000F5F487F8F7405EF8044BA045B8BFA04654
:10062000009C0CF1010CA44507F10107D2D1019AFD
:1006300098FBFBF3136203B0BDE8F08FD0F800B075
:10064000C846F4E7F8B5437B054605EB830290F80E
:100650002901566978B300240CE0114407FB1262AB
:10066000C9B21AB98E4501D34B291AD90134E4B263
:10067000A0421FD92B1993F8611093F893E093F8D7
:10068000F77093F82F3096FBF7F27145E5D9891A88
:1006900007FB1262C9B2002AE8D18E45E6D84B2981
:1006A000E4D858B201F072FA013495F82901E4B2A5
:1006B000A042DFD86B7B05EB8302116A8E421CDB04
:1006C0002B440024DC73546195F8290158B9F8BD16
:1006D00093F92F00002201F059FA013495F829010D
:1006E000E4B2A04208D92B1993F893104B29EFD903
:1006F0000134E4B2A042F6D8F8BD53690133536126
:10070000F8BD00BF837BC21800EB830001210023EA
:10071000D1734361036270472DE9F043DFF84490E1
:1007200083B0064600F2291500F5967400F59C7713
:100730004FF0010815F8010F01F02EFCC0B244F88B
:10074000040FD6F83C31984206DDD9F80030019309
:10075000019B85F816806361BC42EBD103B0BDE814
:10076000F08300BF9C99FF1F30B5194D41682B687D
:10077000026883B00093009B5B1A9342836010DB96
:10078000037B03440446DB7B8BB9637B2344DB7B25
:10079000A3B9A37B2344DB7B2BB92B680193019B7B
:1007A000636003B030BD2046FFF7B6FFF5E7FFF703
:1007B000B3FE637B2344DB7B002BEAD02046FFF7AC
:1007C00041FFA37B2344DB7B002BE6D0EBE700BF9C
:1007D0009C99FF1F2DE9F04F3F4D87B0002402AFD9
:1007E00015F8013FE6B2013493B9032CF8D13B4C24
:1007F000204600F0E1F920B194F814519DB1062D86
:1008000023D03748FFF7B0FF1437BD46BDE8F08F5F
:10081000012307F10C02072130483E7300F098F9DC
:1008200000232B70E1E72F4B217C1868F8602C48DF
:10083000FFF75CFE294607F10C020423204600F076
:1008400087F994F81451062DDBD1D4F81091264A7B
:10085000C7F804D04FEAE97382FB092BC3EB6B0B9B
:100860005FFA8BFB0BF1070323F00703ADEB030DDE
:100870004FEA8B0002A90A30ADEB030D02AA20F06B
:100880000700ADEB030D02ABB9F1000FADEB000DAE
:100890000DF1080A17DD114C002094F813C0257DD6
:1008A00094F8108094F811E0A67C01F8008005EB24
:1008B0000C254AF8205002F800E01E54053081450E
:1008C00004F10504E9DC8DE8000C0548FFF762FE41
:1008D000D7F804D095E700BF6F95FF1F1093FF1F57
:1008E0003094FF1F804200006766666670B472B67F
:1008F0002249234B234841250E2480220D70047089
:1009000019461A700B781E4A1806FBD51E4B1F4855
:100910001D781F4C1F490570033B247809781B780C
:10092000C3704470817062B672B61449154C41268A
:100930000F2580230E702570114613700B781B064F
:10094000FCD5114C1249134A134B247809781278BC
:100950001B78C37104714171827162B683794479E5
:10096000C1790E4A0E4D5370180240EA0440084304
:1009700014709170286070BC704700BF070002407F
:1009800000000240060002400B0002400893FF1FD7
:100990000A00024009000240080002400493FF1FC1
:1009A0000093FF1F08B5FFF7A1FF074B012118783F
:1009B00001F0F6FC0548064900F07AF80548BDE864
:1009C0000840FFF79FBE00BF0488FF1F1093FF1F62
:1009D0000493FF1F3094FF1F70B50B4E0B4D0C4C52
:1009E000304600F01DF82A4630460A4902F03CFF26
:1009F000094B20461968FFF739FD2A46204607496A
:100A0000BDE8704002F030BF1093FF1FFC87FF1F4E
:100A10003094FF1FAD0A00000088FF1FE9040000AA
:100A2000F8B503461C4C1D4F22686168002603F888
:100A3000016BC0F80120082205465960103040F8CB
:100A4000042C3146FF2203F009FA154A2089A389B4
:100A500014491468DFF850E0A5F8160185F815610F
:100A600085F81A6185F81B6185F81C61A5F81831B5
:100A700040F6C4100B7843B13B789B0705D0136850
:100A8000DEF800609B1B182B03D813681B1B8342E6
:100A9000F0D92846F8BD00BF84420000989AFF1F95
:100AA0009C99FF1F809AFF1F789CFF1F704700BF13
:100AB0002DE9F041067804460F465EBBE368002B43
:100AC000C8BF254607DD15F8010F02F069FBE26893
:100AD0002B1B9A42F7DC642001F068FCE56802F009
:100AE000CDFAA8422EDBE368002B2DDD25464FF022
:100AF000010802F09FFA15F8011FE3682A1B8842DB
:100B000018BF4FF000089A42F3DB84F80080B8F178
:100B1000000FD4D04FF4FA7001F048FC387802F09E
:100B20003FFB787802F03CFBB87802F039FB3B7869
:100B300084F81A317B7884F81B31BB7884F81C3137
:100B4000BDE8F0812670B9E701232370E2E700BF1A
:100B5000F8B5064690F816011D460F46144602F0F9
:100B60001FFB96F8170102F01BFB96F81A0102F022
:100B700017FB96F81B0102F013FB96F81C0102F01C
:100B80000FFB284602F00CFB384602F009FB4DB182
:100B9000013D54FA85F5013C14F8010F02F000FB09
:100BA000AC42F9D196F8180102F0FAFA96F8190158
:100BB000BDE8F84002F0F4BA2DE9F84F002400AF88
:100BC00080F81541054602F059FA062803DC204654
:100BD000BD46BDE8F88F02F02DFA95F8163198421F
:100BE0006E4654D102F026FA95F8173198424ED14C
:100BF00002F020FA02F01EFA02F01CFA02F01AFAD1
:100C00005FFA80F802F016FA08F1070323F00703F1
:100C1000ADEB030D834602F031FA08F1010398426F
:100C20006C4608F1FF3A32DDB8F1000F09D054FAF2
:100C30008AFA0DF1FF3902F0FDF909F8010FCA45F2
:100C4000F9D102F0F7F995F8183198421FD102F066
:100C5000F1F995F81931984219D1C5F8108185F844
:100C600014B1B8F1000F0BD008F10F002844621E38
:100C700005F10F0312F8011F03F8011F9842F9D183
:100C8000012085F81501B546BD46BDE8F88F002066
:100C9000B546F9E710B5044602F0F4FA204610BD57
:100CA000024A0349034802F0DFBD00BFFC87FF1F73
:100CB000950C00008095FF1F38B5074D074C08487C
:100CC0002A46214602F0D0FD2A4621460548BDE8C5
:100CD000384002F0C9BD00BFFC87FF1F950C000023
:100CE0008895FF1F9095FF1F024A0349034802F0B1
:100CF000BBBD00BFFC87FF1F950C00009895FF1F30
:100D0000024A0349034802F0AFBD00BFFC87FF1F42
:100D1000950C0000A095FF1F024A0349034802F00A
:100D2000A3BD00BFFC87FF1F950C0000A895FF1F07
:100D3000024A0349034802F097BD00BFFC87FF1F2A
:100D4000950C0000B095FF1F024A0349034802F0CA
:100D50008BBD00BFFC87FF1F950C0000B895FF1FDF
:100D6000024A0349034802F07FBD00BFFC87FF1F12
:100D7000950C0000C095FF1F024A0349034802F08A
:100D800073BD00BFFC87FF1F950C0000C895FF1FB7
:100D9000024A0349034802F067BD00BFFC87FF1FFA
:100DA000950C0000D095FF1F024A0349034802F04A
:100DB0005BBD00BFFC87FF1F950C0000D895FF1F8F
:100DC000024A0349034802F04FBD00BFFC87FF1FE2
:100DD000950C0000E095FF1F704700BF0020704792
:100DE000704700BF064B074ADA62022100225960B1
:100DF0009A7083F8242083F8302083F832207047DB
:100E0000E895FF1F1443000010B50121007801F0A0
:100E1000C1FA0E4A137893B10D49CB7A00241846D3
:100E2000147063B1DC0703D50A4A8869106018465C
:100E30009A0705D4430702D5074B0A6A1A6010BD0A
:100E4000064BCA69C87A1A60F4E700BF4096FF1FD4
:100E50000888FF1F00E100E008E100E004E100E095
:100E60001E4B1A781AB10078002101F093BA70B4C1
:100E70001B4A1C49D47A096801251D70ECB172B671
:100E8000D37ADE071C4606D5174DD4682E68344049
:100E900094612C601C469D0706D5144D13692E687D
:100EA000D47A3340D3612B60630705D5104C536966
:100EB00025682B401362236062B61368DA688A42A1
:100EC00007D00C4C1C600C4AD96041F080441C6176
:100ED0001A600078002170BC01F05CBA4096FF1FD8
:100EE0000888FF1F3C96FF1F80E100E084E100E0DE
:100EF00088E100E001401F0000001F80F0B4134CA7
:100F0000134A236882B01746009300984FF00046BA
:100F100080B2FF25136843F480631360D662556383
:100F2000D36A002BFCDABB6BDBB2FF2B0AD0236841
:100F30000193019B9BB21B1A8B42EBDB002002B09A
:100F4000F0BC7047012002B0F0BC70479C99FF1FB5
:100F500000C00240F8B50D464FF49671164604469F
:100F6000FFF7CCFF284B1A684FF0004042F4806234
:100F700045F040011A60D8621A465963D36A002BC3
:100F8000FCDA214918204FF000470A6826FA00F3DE
:100F900042F48062DBB20A60CF624B63CB6A002B03
:100FA000FCDA083810F1080FEFD155B3082D0CBF4B
:100FB0008721FF21144B1A684FF0004042F48062F1
:100FC0001A60D8621A465963D36A002BFCDA0E4ABB
:100FD000002716464FF00045FF21136843F4806355
:100FE0001360D5625163D36A002BFCDAB36BD8B2BD
:100FF0001B06607000D4F8BD0137B7F5807FECD1D7
:10100000F8BD9521D6E700BF00C00240F0B4164CF1
:10101000164A236882B01746009300994FF00046A5
:1010200089B2FF25136843F480631360D662556369
:10103000D36A002BFCDABB6BDBB2FF2B43700BD106
:1010400023680193019B9BB25B1AB3F5967FE9DDA0
:10105000002002B0F0BC7047A3F1FE00B0FA80F0AF
:10106000400902B0F0BC70479C99FF1F00C00240CD
:10107000F8B58378032B0E46044618BF4E0215467A
:10108000FFF7EEFE324611212046FFF763FF18B945
:101090002046FFF7BBFF20B92046FFF7B5FE002032
:1010A000F8BD204B2049214A1A608E4659631A46E2
:1010B00059631E46596305F5FD70A91C05F5FE77B9
:1010C000D36A13F0F00FFBD0C6F834E0B36B01F82D
:1010D000013C1B1201F8023C02318F42F0D105F5B0
:1010E0000075A8420DD20F4A1646D36A13F0F00FCE
:1010F000FBD0B36B191200F8021BA84200F8013CA8
:10110000F3D3084B0949084A196019465A63CB6A58
:10111000044A13F0F00FFAD02046936BFFF774FEE9
:101120000120F8BD00C00240FFFF009000041F80B6
:10113000F0B4314E33684FF0004743F480633360BE
:101140003D46F762344671633346511C02F2012773
:10115000E26A002AFCDA1A6811F8016C42F4806233
:101160001A60DD625E63E26A002AFCDA1A6811F82E
:10117000026B42F480628F421A60DD625E63E7D1E7
:101180001D49CA6A1C4B002AFBDA1A684FF0004559
:1011900042F48062FF241A601946DD625C63CB6A08
:1011A000154A002BFBDA13684FF0004543F48063C7
:1011B000FF2413601146D5625463CB6A0E4A002B9C
:1011C000FBDA13684FF0004543F48063FF2413609B
:1011D0001146D5625463CB6A074A002BFBDA936B46
:1011E000DBB203F01F024370A2F10500B0FA80F0F9
:1011F0004009F0BC704700BF00C0024070B5044613
:1012000071B18378032B0D4618BF4D021646FFF7C8
:1012100027FE2A4618212046FFF79CFE054620B1EE
:101220002046FFF7F1FD002070BD3246FE2120462A
:10123000FFF77EFF0028F3D04FF416712046FFF72A
:101240005DFE0028ECD02A460D212046FFF782FEE5
:101250000028E5D10B4B1A684FF0004542F480623C
:10126000FF201A601946DD625863CB6A054A002BDD
:10127000FBDA936B13F0FF0FD2D12046FFF7C4FDCA
:10128000012070BD00C00240014B024A1A60704745
:101290003C96FF1F0110013838B590F90530002B3E
:1012A00003DBBDE8384000F06DB904460121006958
:1012B00000F092F9F8B1257D104B13EB45151AD0CB
:1012C000A3790F4A012B9CBFA369EB61E369126804
:1012D0006B831B0CAB8232B105F1160105F11800CE
:1012E00090472B8B6B82637903F07F036371BDE8BA
:1012F000384000F047B9002038BD00BF5096FF1FAE
:101300004496FF1F10B500F1080204460121006A4F
:1013100000F000FA50B1E3693BB96379A268E26179
:1013200063F07F036371012010BD012010BD00BF79
:10133000F8B5837913B182698A4201D20020F8BDE1
:10134000022B0F4605461AD007B32B6AE9681C7CAE
:101350004A1E04F109037C1EDA40DC40A24211D986
:10136000EB69AB6005F1080606E0A968286A00F0A1
:1013700099F9013C0028E1D03246002CF5D1EF600C
:101380000120F8BD0029EBD0A41AEBE7AF60EF60B5
:101390000120F8BD2DE9F04F8B46817985B00129F8
:1013A0000746019205D001233B71002005B0BDE83E
:1013B000F08F42799107F6D5530708D5FC68B969D3
:1013C0008C4200F0A880FFF7B3FF0028EBD0019B10
:1013D000FC68002B49D0DFF88C91DFF88CA1DDF898
:1013E0000480386A0679013E06EA542616F0FF06A4
:1013F000C4F3080442D1002C40D1B96800296FD150
:10140000FA69002A7ED0BA60C4F50075ADB24545D0
:101410003AD9057C4169023AAA400E4416441FFAA3
:1014200088F51CB9F868BA6990424CD2304601215F
:1014300000F0D2F80028B6D04C4404EB050E7445F9
:101440000DD00BF1FF31621E0EF1FF3611F8010FC6
:1014500002F8010F9642F9D1C4EB0E04A344FC68D4
:10146000B8EB05082C44FC60BBD1BB69A34257D242
:101470007A79BC6142F080027A715AE0C4F5007555
:10148000ADB24545BA68C4D8017C4069023A8A4089
:101490000644B5F5007F1644C3D1DAF80020964221
:1014A00004BF4FF0FF32CAF800202A4A31461068C4
:1014B0005A46FFF7A3FE00283FF475AF0BF5007BFB
:1014C0004FF40075CBE700F05DF800283FF46BAFF8
:1014D0002149CAF800600A7842F001020A70ABE7BD
:1014E00003AA00F0DFF800283FF460AF386A1B4B16
:1014F00090F82050039A4FF6F871102D18BF194636
:101500008A4280D33846FFF7FDFE00283FF44BAFF8
:10151000386ABA6878E7019B002B7FF45CAF08E07B
:101520000F4B7A791B6823B1019B13B142F0800203
:101530007A71120709D5BB79002B3FF434AF3846D6
:10154000FFF7AAFE00283FF42EAF019805B0BDE8D2
:10155000F08F00BF4C96FF1F5098FF1FF8FFFF0F42
:101560004496FF1F5096FF1F2C88FF1F00B583B0C5
:1015700002AB012203F8011D1946FFF70BFF03B070
:101580005DF804FB70B50F4C23780BB9012070BDDA
:101590000D4B0E4D196828680D4AFFF72FFE70B1EC
:1015A0000C4E316819B900232370012070BD2868E2
:1015B000074AFFF723FE10B100233360F3E7002052
:1015C00070BD00BF5098FF1F2C88FF1F4C96FF1F57
:1015D0005096FF1F4896FF1F70B50D4D2B68834234
:1015E0000E460ED00446FFF7CDFF08B9002070BDAF
:1015F000084B094A18682146FFF73AFD0028F5D044
:101600002C60064B197831431970012070BD00BF62
:101610002C88FF1F4C96FF1F5096FF1F5098FF1FEE
:10162000F8B590F82030C469102B1A4B05460E46C9
:1016300017461B6816D004EBD1149C4216D106F055
:101640007F06154A42F826701449287E0A78012838
:1016500042F001020A7018D9A968114A0B441360BC
:101660000120F8BD04EB11249C4208D00021204643
:10167000FFF7B2FF50B195F82030102B07D1F6B22A
:10168000054A234622F81670DEE70120F8BD2346FE
:10169000D5E700BF2C88FF1F5096FF1F5098FF1FF3
:1016A0004896FF1FC36801338B4218D370B590F87A
:1016B0002030102B154B044616460D46C0691B689A
:1016C0000FD000EBD11098420FD105F07F01104BE5
:1016D00053F8213023F070433360012070BD0020A7
:1016E000704700EB1120984207D00021FFF774FFEC
:1016F00050B194F82030102BE7D1E9B2044B33F805
:1017000011303360012070BD002070BD2C88FF1F98
:101710005096FF1F2DE9F04F176883B06FB3013764
:101720004FF0000AC36803F1010813B38B46064665
:1017300091463C46002505E01C461F46F3680135EE
:10174000AB4216D9A04538BF0224214601AA304633
:1017500038BF2746FFF7A6FF631CD91B48B1019A83
:10176000002AE9D18B4510D01C46F3680135AB4205
:10177000E8D8002003B0BDE8F08FA1F1010ABAFA61
:101780008AFA07684FEA5A1ACCE7012CF1D9F368B4
:1017900001339C42EDD86FF0704221463046FFF78E
:1017A0003FFF0028E5D0A74214D2013C012CE0D92C
:1017B000F36801339C42DCD8621C21463046FFF7B7
:1017C0002FFF0028D5D0A74204F1FF3402D0012C0E
:1017D000EED1CEE7D9F8001059B10129C9D9F36883
:1017E00001339942C5D83A463046FFF719FF002821
:1017F000BFD0C9F80070BAF1000F01D001373760CF
:101800000120B7E790F8392090F83800101A704797
:1018100090F8383090F839209A4205D95A1C034480
:1018200080F83820187E70474FF0FF30704700BFB7
:1018300090F8383090F839209A4286BF1B18187EED
:101840004FF0FF30704700BF704700BFB0F85E3008
:101850006BB190F85D30202B07D8C218013380F8A7
:101860005D30012082F83B10704701230371002096
:10187000704700BF38B50546B0F85E0090B195F8E6
:101880005D301446C3F1210294420CD805F13B00AF
:101890001844224600F0D4F995F85D30234485F8C9
:1018A0005D30204638BD012014462871EEE700BFA8
:1018B00010B50269D378DBB2D90604463DD51021B4
:1018C0005806D17038D503F0040303F0FF02002B53
:1018D00051D03D49626E00230B7084F85D30002AC0
:1018E0005BD0904794F85D30002B56D02369D0220E
:1018F0009A70236994F83B201A712369012284F8B5
:101900005C200222DA7010BD304B84F860009C42EB
:101910004AD02F4B9C4252D094F8391013791F298A
:10192000DBB207D82848007820B16018013184F86C
:10193000391003760223D37010BD5906C3D49178B1
:1019400001F0100101F0FF000029DDD013F00103C8
:101950001ED194F85C1094F85D00884281BF4B1C46
:10196000091984F85C3091F83B3013712369D02257
:101970009A702269DEE7236984F83920C0229A70C0
:101980002369114A1979012111700222DA7010BD00
:10199000C023937022691379CCE70122002384F8D5
:1019A0005D2084F83B30A1E7626994F86130094911
:1019B00013440322187A00F01BFC2269ACE7626929
:1019C00094F861300449F3E75198FF1F3088FF1FF6
:1019D0009C88FF1F391A0000451A00000369DB7854
:1019E00003F0200373B190F860300133DBB2012BB8
:1019F00080F860301AD9426990F861301344187A3F
:101A000000F072BC70B5426903F0FF0590F86130D8
:101A100013440446187A00F067FCA36E5BB184F8A7
:101A2000385094F83900BDE87040184790F85F309E
:101A3000002BE0D0704770BD0148FFF7CFBF00BF5B
:101A40003088FF1F0148FFF7C9BF00BF9C88FF1FF8
:101A50000148FFF72DBF00BF3088FF1F0148FFF787
:101A600027BF00BF9C88FF1FF0B5334E337801338A
:101A7000DBB23370F3B1314C314B02E01033A3428F
:101A800012D093F90020002AF8DB3278997A91423B
:101A9000F4D15A78596842B9187A0A78103322EA90
:101AA0000002A3420A70ECD1F0BD1A7A0878024312
:101AB0000A70E3E7224BD97A03F5A0742746C9B927
:101AC000197B51B3587A9D7AC5EB000EBEF1000F19
:101AD00002B22EDDD2B29A7232B15A785968B2B9D6
:101AE0001A7A087802430A701033BB42C4D0D97AFC
:101AF0000029E5D0587A9D7AC5EB000EBEF1000FA3
:101B000002B20DDD29448142E4DC0AB2E2E7187A30
:101B10000A7822EA00020A70E6E75A7A9A72DBE74C
:101B2000D8D0197B0029D5D0691A8142A8BF0A46AE
:101B3000D0E7F9D1CEE700BF0889FF1F9499FF1FB6
:101B40005498FF1F70B50546082001F045FC00249D
:101B5000802640F634420A490671046001F0AEFB6B
:101B6000084B224603F5A070FF2119705A705A6085
:101B7000DA721A7310338342F7D1034B1D7070BDB4
:101B8000691A00005498FF1F5298FF1FF8B512B150
:101B9000264BFF221A70264B00224FF0FF3408E03C
:101BA000854238D0671C0DD00132142A03F110038E
:101BB00012D0002813F9095CF2DA002D30DB671C23
:101BC0001970F1D113F9095C002DEDDA54B201322C
:101BD000142A03F11003ECD1002825DB661C23D066
:101BE0000B46144D144A154952F8307009782401F7
:101BF0002A19012628555372576051701672C4B2C3
:101C000001B13146204600F0C5FB20460121BDE868
:101C1000F84000F0C5BB074B03EB02125172F8BD50
:101C2000651CC1D154B2D2E7F8BD00BF0889FF1FBF
:101C30005D98FF1F5498FF1FB44300005298FF1F88
:101C4000844641EA000313F003036DD1403A41D3C7
:101C500051F8043B40F8043B51F8043B40F8043B86
:101C600051F8043B40F8043B51F8043B40F8043B76
:101C700051F8043B40F8043B51F8043B40F8043B66
:101C800051F8043B40F8043B51F8043B40F8043B56
:101C900051F8043B40F8043B51F8043B40F8043B46
:101CA00051F8043B40F8043B51F8043B40F8043B36
:101CB00051F8043B40F8043B51F8043B40F8043B26
:101CC00051F8043B40F8043B51F8043B40F8043B16
:101CD000403ABDD2303211D351F8043B40F8043BB6
:101CE00051F8043B40F8043B51F8043B40F8043BF6
:101CF00051F8043B40F8043B103AEDD20C3205D3C6
:101D000051F8043B40F8043B043AF9D2043208D0BD
:101D1000D2071CBF11F8013B00F8013B01D30B882F
:101D200003806046704700BF082A13D38B078DD00D
:101D300010F003038AD0C3F10403D21ADB071CBFDF
:101D400011F8013B00F8013B80D331F8023B20F849
:101D5000023B7BE7043AD9D3013A11F8013B00F882
:101D6000013BF9D20B7803704B7843708B7883700A
:101D700060467047374A384913681B06FCD40B6825
:101D800013F08003F8D172B634490A78002A5FD084
:101D9000334A3448F0B4344C176806682568D46870
:101DA0000C303E44143200681268304F35442C44E5
:101DB00020440244C2F34E022D4E2E482E4D2F4C8D
:101DC00042F400423A60376806682D682C4A24685D
:101DD0000C303E44006812682A4F35442C4420449D
:101DE0000244C2F34E02284E2848294D294C42F4A1
:101DF00000423A60376806682D68274A24680C302C
:101E00003E4400681268254F35442C442044024467
:101E1000C2F34E02224E2348234D244C42F400428A
:101E20003A60376806682D68214A24680C303E44C1
:101E30000068126835442C4420440244C2F34E0228
:101E40001C4842F4004202600B7062B6F0BC70475E
:101E500062B6704724B0034024B00B409599FF1F31
:101E600038B003403CB0034040B003402CB00340C6
:101E700058B003405CB0034060B0034064B003401E
:101E80006CB0034030B0034038B00B403CB00B4066
:101E900040B00B4044B00B404CB00B402CB00B405A
:101EA00058B00B405CB00B4060B00B4064B00B40CE
:101EB0006CB00B4030B00B4030B42948294A2A4B53
:101EC0002A4D6024E121047011701B78284C082BE6
:101ED00030D00A2B2748284937D00C2B0CBF35228D
:101EE0003D2212232A60236002600B60234B2449A9
:101EF0001B78244ABBB101230B601360224B23499A
:101F00001B78234A012B26D9042B0FD9082B1ED965
:101F1000102B94BF862387230B6013601D4B012277
:101F20001A7030BC70470B601360E7E784230B60C6
:101F30001360F3E700F58E200F49083001221323C8
:101F40002A60236002600B60D0E73922F7E785231F
:101F50000B601360E2E780230B601360DEE700BFD5
:101F600000400740014007400989FF1F08B00340B7
:101F70000CB0034008B00B400CB00B409899FF1F09
:101F800020B0034020B00B400A89FF1F24B003405B
:101F900024B00B409599FF1F28282FD8334B2DE9EB
:101FA000F0411E5CFF2E2BD0314B1B78002B2AD129
:101FB00032062CD472B62F4D2F4C2F4601232660AB
:101FC0002B7062B672B623681B060CD43B781BB923
:101FD000F4E72B78002BF1D062B601F001FA72B66B
:101FE00023681806F5D5254B1B6800222A7062B6B7
:101FF000234A107843FA00F0BDE8F08100207047D2
:102000000020BDE8F081FFF7B5FE3206D2D572B6EA
:102010001C4DDFF87C801C4C06F04007FFB206F038
:102020003F06D8F80030DFB123F01003C8F80030C5
:1020300001232660134A2B7062B672B62368190614
:102040000CD413781BB9ECE72B78002BE9D062B6DF
:1020500001F0C6F972B623681B06F5D50B4BC3E732
:1020600043F01003C8F80030E2E700BF88430000E7
:102070009599FF1F9799FF1F00B0034010B00340D0
:102080009499FF1F9699FF1F00B00B4010B00B40B2
:102090000CB00B40024A136801331360704700BF55
:1020A0009C99FF1F08B5104C08E0236859050DD412
:1020B00023681A050FD42368DB0411D4236858035E
:1020C000F3D500F0E9FA23685905F1D501F0ECF9F0
:1020D00023681A05EFD501F07DFA2368DB04EDD5FE
:1020E00001F00EFBEAE700BF3480044008B5FFF7BB
:1020F000D9FF00BF014B10221A8070470020054015
:10210000704700BF094908B50B6830B16A461844EA
:10211000A2F58052904202D20860184608BD01F034
:10212000AFFB0C2303604FF0FF3008BD0C89FF1F8D
:10213000704700BF10B40F4B53F8302092F8804224
:102140002CB1012369B182F8803010BC704703EBD9
:10215000C0035B681A6841B922F002021A6010BC21
:10216000704782F8003110BC704742F003021A60D9
:1021700010BC7047B44300001C4A02EBC0030129A5
:102180005B6811D004291BD052F83000002280F87F
:10219000802229B1022920D0032922D01A60704759
:1021A0004FF480721A60704752F830004FF4A272F8
:1021B00080F880121A601A6822F020021A607047B4
:1021C00052F830104FF4A272012081F880021A6098
:1021D0001A6842F020021A60704740F203121A6037
:1021E00070474FF481721A60704700BFB44300001B
:1021F000212817D8F8B5042A13D8DFE802F0494C93
:102200004F1446002C4872B6236823F4702343F021
:102210008072C4F384011643236040F82150266085
:1022200062B6F8BD70474FF41026244B03EBC00391
:102230000D465C68216811F4E06134D0204B214ADE
:102240002149C3F89C2104F140422048C3F8A4115D
:10225000A2F592211E4FC3F8A0017C291D48C3F8A6
:10226000A871C3F8AC01CDD9A2F594237C2B18D961
:10227000A2F596237C2B19D9A2F598237C2B17D98C
:10228000A2F59A227C2A15D9F8BD4FF43026CCE766
:102290004FF40026C9E74FF44026C6E74FF4202646
:1022A000C3E70D48AFE7FFF767FFC7E70B48AAE7AB
:1022B0000B48A8E70B48A6E71089FF1FB4430000AE
:1022C0000082FF1FD187FF1F7987FF1FA587FF1F90
:1022D0004D87FF1F2187FF1F4889FF1F9889FF1F18
:1022E000C889FF1FE889FF1F1A4B03EBC00010B419
:1022F000426802F14043A3F592217C2905D9A3F558
:1023000094217C2913D8144900E0144972B613684B
:10231000134C23F08773C2F3840023F4803343F01B
:102320008073136041F8204062B610BC7047A3F57B
:1023300096217C2909D9A3F598217C2907D9A3F5F1
:102340009A237C2BF1D80749E0E70749DEE70749E4
:10235000DCE700BFB44300004889FF1F1089FF1F5E
:1023600031210000E889FF1F9889FF1FC889FF1FDE
:1023700030B4054B054D064C002210211A602A602E
:102380002060196030BC704714D0034004D0034073
:1023900000D00340212801D8FFF7CCBE704700BF12
:1023A000212801D8FFF7E8BE704700BF2DE9F843A8
:1023B000054672B6204F214B214A1B683C681268C3
:1023C00062B6520102D5322B88BF013495B3C3F5F2
:1023D000BB331C4EDFF86490DFF86480FF334FF4AA
:1023E0007A72A6FB031302FB04F404EB931472B697
:1023F000D9F800103A68D8F800E062B6C1F5BB33EE
:10240000FF33A6FB03031EF0806FC4EB93134FF45E
:102410007A7002D0322988BF013200FB0233B3F553
:102420007A7F04D3013D05D004F57A74DFE700F02C
:10243000D7FFDCE7BDE8F8839C99FF1F18E000E0B8
:1024400004ED00E0ABAAAAAAF8B52D4B2D49DFF8A0
:10245000D0E0DFF8D0C02C4E2C4D2D4C2D4A2E4F05
:102460004FF4000018604FF0807018604FF000705B
:1024700018604FF0806018604FF000601860002016
:10248000086028234BF6FF71CCF80010CEF800301E
:10249000336013602B6023603B60B3629362092258
:1024A00045F8242CC4F8D80F05F57F65C7F8D41F6C
:1024B00007F5FF2707F5FA67C6F8F83F2B6006F522
:1024C000FF26C4F8D42F05F5FD2504F5FF24386058
:1024D00006F2F4761148316005F5FF6504F5FD64F8
:1024E0002B6023600260FFF7E7FC3220FFF75EFFFE
:1024F00000F0FEFC4FF4AF70BDE8F840FFF756BFA8
:1025000008E100E00480034014800340248003407D
:102510002C8003401C8003403480034000800B402B
:102520000C80034008800340431E032B14D872B66E
:102530000A4951F8230068B170B4094C058834F891
:102540001320466841F82360521B24F8132062B61A
:1025500070BC704762B6704700207047F899FF1F43
:10256000689CFF1F013803280BD872B6074B53F83D
:10257000203043B100205B680130002BFBD162B6F4
:102580007047002070471846F9E700BF4C9AFF1FBC
:10259000F0B472B61A491B4E012311F8014B194FC2
:1025A0009A00240742F0010505D556F8324064B17F
:1025B00056F83520BAB10133052BEED162B6124B75
:1025C00000221A70F0BC00F00FBD0F4C0F4D2178A7
:1025D00047F8325007EB431308304A1E5860227008
:1025E00062B6F0BC70470849094B0A7847F83530A5
:1025F00007EBC5030830013A58600A7062B6F0E78D
:10260000C44400000080FF1F759AFF1F880040002F
:10261000C8004000431E032B1DD81B4A400140F058
:10262000100030B4104472B6184CE25C032A1BD878
:10263000DFE802F00212151703220D88E25410F0B1
:10264000080F14BFC823882343EA054308310360F9
:10265000416062B630BC704708300222EDE70522C7
:10266000EBE708300422E8E7094A52F8230038B1C2
:10267000084A52F82300416042F8231062B6E9E7A5
:1026800042F82310034AF7E70080FF1F849AFF1FD8
:102690004C9AFF1F5C9AFF1F2DE9F04FDFF804A34F
:1026A000DFF804B387B044E0A94F4FEA930807EB83
:1026B000C809013ED9F8042003F00803F6B2A2F1DC
:1026C000080003F0FF04002B40F0FE8057F838307C
:1026D0001B0C99B222F8081C002B00F0EC809D4BDB
:1026E00022F8064C42F8044C53F82620002A00F049
:1026F0002B82994D55F826305860984C45F82600A5
:1027000034F81630194424F8161000F04DFC002857
:1027100000F01382924A934B19F0080F00F1080061
:1027200018BF1346C9F8040047F8383008238AF860
:1027300000309AF80040E4B260071AD58A4B1B7843
:10274000A3B18A490A7802F0FF0322B1013BDBB250
:102750000B7003B900BE86490A7802F0FF032AB164
:10276000013BDBB20B70002B00F0BD8104238AF823
:10277000003004F0080303F0FF02002B00F0C880D3
:102780009BF80030DBB21E098ED19C08704F57F8C1
:10279000342007EBC401C2F38302013A49680C2AD2
:1027A00000F28580DFE802F0797983838383838375
:1027B00042838383070008686E4B6F4D0193684B1B
:1027C0004A686E4E47F8343081B240F28164694BFA
:1027D0006A60286000220120A1421A603A61BA6151
:1027E000307000F2E380B1F5D06F80F02782B1F550
:1027F000817F00F0E08100F2C381802900F0368201
:10280000822940F0DE81A9885D4B01F07F01042917
:1028100000F2D8815B4C89000B44227062701A78F8
:10282000930740F122832070022023E2514B019351
:102830001A683AB3544B514E5449188834780D787D
:102840004028864645F0020828BF4FF0400E002C75
:1028500084F001043470CEEB00000CBF8824C8243F
:1028600007EBC80680B285F0010544EA0E447260A9
:10287000188047F8384072440D70002800F0B78087
:10288000019B1A603C4B1A88B2F5A06F0FD1002152
:102890009A7859703E4B1A7009E0374A108842F214
:1028A0002102904200F0A8802D4A47F83420394A8E
:1028B000012313703AE72A4A2A4B19F0080F18BF70
:1028C000134647F8383031E700F08EFB324A33497F
:1028D00052F82630002B00F03B8158688C5D42F89E
:1028E000260003F10802C9F80420032C05D8DFE80C
:1028F00004F02C02292602228A551A8819F0080FA2
:102900000CBF8823C82343EA024347F838300DE759
:10291000E00700F1EB80210600F12881A20706D52F
:102920001F4A204913780220DBB213700870E306B7
:1029300002D51C4B10221A7007B0BDE8F08F04229C
:102940008A55DAE705228A55D7E703228A55D4E764
:102950000080FF1FF899FF1FA499FF1F689CFF1FAD
:10296000C800400088004000809AFF1F099AFF1F9E
:10297000889AFF1FA099FF1F6C9AFF1F089AFF1FDC
:10298000C0200740789AFF1FB499FF1F749AFF1F59
:1029900098200740942007404C9AFF1F849AFF1FFD
:1029A00088200740802007409020074042F2210401
:1029B000A14200F0948043D8B1F5086F00F0A881DF
:1029C000B1F5106F40F0FD80B84AB94CA97811708C
:1029D00004F1800503E00834AC4200F09E81236AD4
:1029E0001906F8D5606A083800F0FEFAF3E7BEF180
:1029F000400F18BF002243E7AE4ACD1D11F8013B3E
:102A000002F8013FA942F9D1AB4A1268862A00F0C8
:102A10001181AA49AA4E0A78307882F0010500286F
:102A200042F002020D700CBF8821C82147F8321015
:102A300007EBC20280F0010000213070516033E7E3
:102A400042F22124A14240F0FE81DFF8BCC29D4B3E
:102A50009D49AC78DCF800501D6081460C70002068
:102A6000029080468446044694490D7845F0020E53
:102A700007EBCE03B9F1000F5C600CBF8824C824BB
:102A800044EA080385F0010447F83E3032700C70C8
:102A9000DFF81CE28A4BDFF82482002840F098809F
:102AA000BCF1400F1BD144F0020407EBC403029FAA
:102AB000DFF8FCE15F60002A40F09F80020442F0F2
:102AC000880207444EF8342086F800900D703B468B
:102AD000402804D100207D4A019910800B607C4A77
:102AE00001231370E3E600F067FB3FE6704B784884
:102AF00072491A614FF0020E80F800E0754F0A70BB
:102B0000754919609960754E754D764C9A610D2125
:102B10003970FF213170DFF8F4E129702270724DB5
:102B2000724A8EF800109F27012406F8047C5D602D
:102B30000470DA6007B0BDE8F08F6D4A47F83800DE
:102B4000137801331370F1E543F82600694DD4E59D
:102B50008B5D032B67D801A252F823F02D270000CC
:102B60002D270000B12B0000AB2B000059495C4B16
:102B700080220D2008701A70A2077FF5D8AECFE62C
:102B800040F20232914240F05681A98801F07F0163
:102B9000042916D86A88A2B94E4C89000C44814693
:102BA000217841F00201217059E701238B55BDE5E1
:102BB00000238B55BAE5A98801F07F01042940F272
:102BC0004781444B0F221A70414A012313706EE66D
:102BD00040287FF668AF44F002040EEBC401029E69
:102BE0004E60AAB1444A83F800903346403888F8D2
:102BF000005040334EF834206DE70204029B86F803
:102C0000009042F0C8020D7003444EF834205FE794
:102C100083F80090029B304A88F8005040384033D7
:102C20004EF8342057E719F0080F0CBF0223032396
:102C30008B557BE5314A0F211170EAE6304A546822
:102C4000002CBED06888B5F804E003E00C3254686C
:102C5000002CB6D013888342F8D153887345F5D140
:102C6000000A03280CBF2078108903E0254C0220BD
:102C700022706270EA88824280F00C810F490D78E0
:102C8000402A45F0020E944607EBCE0028BF4FF0D5
:102C9000400C04EB0C0344600293CCEB02004FEABF
:102CA0000C484FF001090022C824E9E6809AFF1F72
:102CB0000080FF1F6F9CFF1F709CFF1F749AFF1FF7
:102CC000089AFF1F789CFF1F989AFF1FB499FF1F57
:102CD00094200740C020074088004000882007401B
:102CE0008020074098200740B899FF1F0C9AFF1FCB
:102CF000759AFF1FA499FF1FC8004000099AFF1F83
:102D0000C8440000789AFF1F9C99FF1F8C20074041
:102D1000684A694C12782270ACE76849684B694A86
:102D200002916949694C6A4D039405964FF0000978
:102D300088461C4616460495206828B1456800F070
:102D400053F92846002DF9D100232360049B3068F5
:102D50001A46002342F8293028B1456800F044F9AA
:102D60002846002DF9D100223260029A98F80030EE
:102D70001146002241F8042B039A0291023B4FF0C6
:102D8000000122F81910032B07D8DFE803F0340202
:102D900034024FF0010388F8003009F10109B9F15C
:102DA000040F04F1040406F1040608F10108C3D17C
:102DB000484B059EDFF83091DFF830810021197013
:102DC000012518F8013B09F8043B1A0718D4AC0098
:102DD00044F0020244F00304002347F8323047F87D
:102DE00034303D4B994505F10105EAD196F8009044
:102DF00089F0010233E64FF0000388F80030CCE799
:102E000000F0D2F8AC0007EB451300F108020028EF
:102E100037D05A60314B47F8343000F0C5F844F0F1
:102E2000010307EBC30200F1080100B351602C4A13
:102E300047F83320CCE7B1F5A06F7FF4C2AE002293
:102E40004FF001090BE642F221329142F7D0B8E689
:102E50006A88002A7FF4B5AE224C89000C44814672
:102E6000217821F002012170F9E5022002E7194BD7
:102E700044F001021B7847F83200164A0133137000
:102E8000A6E7144B134A1B78AC00013347F8340013
:102E90001370C2E74028844628BF4FF0400C04EB73
:102EA0000C03CCEB00004FEA0C48029300224FF0D9
:102EB0000109D9E5809AFF1F789AFF1F5C9AFF1FCE
:102EC000F899FF1F4C9AFF1F849AFF1F689CFF1FF1
:102ED000A499FF1F759AFF1FD42007408800400067
:102EE000C8004000C0200740C4200740C444000080
:102EF0002DE9F843204C00F06FFC002204F188001B
:102F000023461A605A60083383424FF00001F8D11B
:102F10001A4A1B4F13681B4D1B481C4EDFF8788064
:102F2000DFF878C0DFF87890DFF878E043F48023AA
:102F30001360C4F307233B70C4F307432B70240EC4
:102F4000FF2302F528320470114D88F80030114833
:102F50008CF80030D4323370012389F800307026A9
:102F60008EF800104FF40074102107F8183C2E70F2
:102F700004601170BDE8F8830080FF1F34800440B6
:102F80009C200740B0200740B42007401020074095
:102F900049E400E008E100E0802007408820074085
:102FA000942007400021074072B60D480268B2FA2B
:102FB00082F30B2B10DC4FF00041D94022EA0102D2
:102FC000026062B6074803EBC303DB00C2180021AE
:102FD000C15010465160704762B60020704700BF74
:102FE000F089FF1FBC83FF1F0D4B0E4AC31AA2FBC3
:102FF00003231B090B2B0CD80B4A127852B972B65B
:103000000A484FF00041026821FA03F31A430260B4
:1030100062B67047064A1278002AF0D0FFF7B8BAB5
:10302000BC83FF1F398EE338759AFF1FF089FF1F9D
:10303000809AFF1F38B50F4D286878B14388028801
:10304000C118013393420C7A02D24380204638BD26
:10305000FFF7CAFF002320462B6038BD064B1B78C4
:103060002BB10320FFF760FA28600028E6D14FF06B
:10307000FF3038BD949AFF1F809AFF1F044B054A0A
:103080001B6890881BB11A885B88D31A1844704754
:10309000949AFF1F689CFF1F2DE9F04FDFF8F8900E
:1030A00083B0012289F80020019169B3DFF8EC8038
:1030B000364F019E8346D8F80000B0B3344D4488A3
:1030C000C4F14001B14228BF314604EB010E002299
:1030D0001FFA8EFE2A70761AA0F802E000F10802AC
:1030E00051B1013C224459441BF8014B02F8014FF5
:1030F0008B45F9D1B0F802E0BEF13F0F0BD8254A5D
:1031000005211170002ED6D10198002389F80030D6
:1031100003B0BDE8F08F4022028001460420FFF793
:1031200079FA0022C8F80020E9E73A782AB3184D66
:103130004AF2F9244FF0010A07E0013C16D02A7840
:10314000A2B900F04DF93A78BAB10420FFF70AFAB3
:103150000728F2D889F800A0FFF726FFC8F800007A
:103160000028ACD10C4B013C1870E8D101234FF082
:10317000FF302B7003B0BDE8F08F00234FF0FF301D
:1031800089F8003003B0BDE8F08F00BF809AFF1FC0
:10319000909AFF1F889AFF1F899AFF1F8C9AFF1F22
:1031A00000B583B002AB012103F8010D1846FFF70B
:1031B00073FF03B05DF804FB38B50E4B1B7873B991
:1031C0000D4C216861B103F0FF054B880B80042092
:1031D000FFF720FA256038BD084B01221A7038BD70
:1031E000FFF7E2FE0028F7D00146BDE83840042092
:1031F000FFF710BA899AFF1F8C9AFF1F889AFF1F4A
:103200001A491B4A1B48F8B50B681B4D046843F06C
:1032100080730B60136843F0010313602E6814B9C8
:1032200015E064699CB1237A002BFAD023682F68DB
:103230001B68204698472B68E188DB1B1B099AB264
:103240008B42A28088BFE2806469002CEBD10A4BDC
:103250000A4A1B6810880A4C9B1B1B0999B28342BF
:10326000218001D91180F8BDF8BD00BFFCED00E060
:10327000001000E09C9AFF1F041000E0A09AFF1FBE
:10328000A29AFF1F03790F2B11D8094A10B41370AB
:1032900072B6084904790A880123A34022EA03038D
:1032A0000B8062B61022002310BC027103607047CD
:1032B0001A800040A49AFF1F704700BF0368F0B453
:1032C000FBB1002501249D60DC601B4C1A601C448E
:1032D000241104F144056A11032692009E60174FE1
:1032E0000679174B47F8241002F1604202F561425B
:1032F00005F01F05012000FA05F5E6541560F0BC45
:103300007047104C236843F40003236000BF0E4B4A
:103310000E4DA4F58734A4F59E7401261E60234645
:1033200004609C68002CD0D01033AB420360F8D10D
:10333000002303601846E2E7008FFCBFF489FF1FFB
:1033400044E400E03C8004400070034040710340CE
:10335000024A034B012111601B6818470C7103409E
:10336000F489FF1F024A034B012111605B68184773
:103370001C710340F489FF1F024A034B01211160B5
:103380009B6818472C710340F489FF1F024A034BC6
:1033900001211160DB6818473C710340F489FF1F6D
:1033A000F8B572B106460F4614460025336817F883
:1033B000011B1B6830469847013C0544F6D128465E
:1033C000F8BD1546FBE700BF08B5FDF7EBFAFDF7C2
:1033D00001FA00F005F8FAE700F080BA704700BF84
:1033E00010B5154C237803B110BD01232370FFF7EE
:1033F00045FE58B900F048F870B900F0DBF888B91C
:1034000000F06EF9A0B90023237010BDFFF7E6FFAE
:1034100000F03AF80028F0D000F020FA00F0CAF8E6
:103420000028EDD000F01CFA00F05AF90028EAD08C
:1034300000F018FAE7E700BFA69AFF1FF0B44D1E90
:103440002E46002400E00134B0FBF2F302FB13002F
:10345000092800F130078ABF3730F8B2C0B206F849
:10346000010F1846002BEED10A1953704CB1107899
:1034700015F8016F28700133E01A834202F80169E0
:10348000F5DB0846F0BC7047054A064B10781B7800
:10349000C0B2DBB2984238BF4030C01A704700BF9C
:1034A000AC9AFF1FAD9AFF1FF0B4384B1A7912F097
:1034B000300F2CD072B6997D01F0FF0200293DD06B
:1034C00062B6334F334938780D78334E1C46C0B25C
:1034D000EDB2431C402BE17928BF0023AB4202F13F
:1034E000FF32C9B21CBFF154184612F0FF02F0D1EE
:1034F0002A4B1B68C2B23A704BB1A84236BFC5F125
:103500004005401B40192728C4BF01221A701F49DB
:10351000CA78D2B2150616D452060DD51B4B1B79AC
:103520005B0609D51E4B1F491B6800220A7003B1B8
:103530001A70164B3C22DA70F0BC70474022D979E1
:103540005A7462B6E3E70B791C06E5D5164B174EA5
:103550001C783378E4B2DBB29C420ED0144D01E00B
:10356000A3420AD00133402B28BF00230879E85C2E
:10357000C0B2C871087D0728F2D9DBB203493370A5
:103580000B79180644BF7C23CB70C5E700A006402A
:10359000AC9AFF1FAD9AFF1FF09AFF1FA89AFF1F5A
:1035A000349BFF1F309BFF1F389BFF1F319BFF1F6A
:1035B000B09AFF1F054A064B10781B78C0B2DBB2E9
:1035C000984238BF4030C01A704700BFAC9BFF1F05
:1035D000419BFF1FF0B4384B1A7912F0300F2CD0FA
:1035E00072B6997D01F0FF0200293DD062B6334FDB
:1035F000334938780D78334E1C46C0B2EDB2431CC7
:10360000402BE17928BF0023AB4202F1FF32C9B25F
:103610001CBFF154184612F0FF02F0D12A4B1B6870
:10362000C2B23A704BB1A84236BFC5F14005401B4B
:1036300040192728C4BF01221A701F49CA78D2B284
:10364000150616D452060DD51B4B1B795B0609D502
:103650001E4B1F491B6800220A7003B11A70164BDB
:103660003C22DA70F0BC70474022D9795A7462B6B5
:10367000E3E70B791C06E5D5164B174E1C7833781B
:10368000E4B2DBB29C420ED0144D01E0A3420AD05A
:103690000133282B28BF00230879E85CC0B2C87129
:1036A000087D0728F2D9DBB2034933700B7918067D
:1036B00044BF7C23CB70C5E700B00640AC9BFF1F26
:1036C000419BFF1F6C9BFF1F3C9BFF1FB09BFF1F7D
:1036D000409BFF1FB49BFF1FAD9BFF1F449BFF1F21
:1036E000054A064B10781B78C0B2DBB2984238BF4F
:1036F0004030C01A704700BFBC9BFF1FBD9BFF1F1F
:1037000030B42B4B1A7994061FD52A48DA790378FE
:10371000294901333F2B0978C8BF00238B42D2B21D
:1037200003D0264CD9B2E2540170254A116861B128
:10373000244A1278D2B2934236BFC2F140029B1A99
:103740009B18272BC4BF01230B70194AD378DBB217
:10375000180611D45A060DD5154B1B795B0609D5F1
:10376000194B1A491B6800220A7003B11A70104BDA
:103770002C22DA7030BC704711790906EAD5144959
:1037800010480C780178C9B28C420DD04A1C272A07
:1037900084BF00210A460F4D054C98BFD1B2AA5CE8
:1037A000D2B2E2710170D5E76C21D170D2E700BFCF
:1037B00000C00640BC9BFF1FBD9BFF1FE89BFF1F77
:1037C000B89BFF1F299CFF1F2C9CFF1F289CFF1FDD
:1037D000309CFF1FC09BFF1F70B584B072B6194BA1
:1037E000194D1A48702241260F2480211A702E701C
:1037F0001A460470197013781B06FCD5144B186810
:1038000062B6144B144C984298BF00EB800001A99B
:1038100098BF40000A22FFF711FE01A920460023AD
:1038200011F8012B01333AB10A2B20F8022FF7D1FE
:103830001623237004B070BD5B00DBB2237004B0AC
:1038400070BD00BF000002400700024006000240B9
:10385000080002407F969800908AFF1F704700BFC3
:10386000704700BF704700BF0B460146184600F086
:1038700001B800BF13460A460146022000F052BBC1
:10388000014B1868704700BFD08EFF1F70B50F4EF8
:103890000F4D761BB61018BF002405D0013455F823
:1038A000043B9847A642F9D10A4E0B4D761B00F017
:1038B00037FEB61018BF002406D0013455F8043B7B
:1038C0009847A642F9D170BD70BD00BF2C450000DD
:1038D0002C450000704500002C450000024B0146BD
:1038E000186800F003B800BFD08EFF1F2DE9F04F1D
:1038F00001F10B05162D83B0064640F29F8035F08E
:10390000070500F1BF80A94200F2BC8000F0F4FA84
:10391000B5F5FC7FC0F09C826B0A00F0BA80042BE6
:1039200000F28381A80900F1390E4FEA4E033830C6
:10393000C44F07EB8303A3F108015C68A14207D1E0
:10394000ACE0002A80F2AC80E468A14200F0A680DE
:10395000636823F003035A1B0F2AF2DDB9493C695F
:1039600001F1080E744500F0B381636823F003038E
:103970005A1B0F2A00F39981002AC1F814E0C1F8FC
:1039800010E080F29E80B3F5007F80F06781DB0855
:1039900003F1010C01229B1002FA03F34A6851F86B
:1039A0003C80C4F8088001EBCC091A43A9F1080354
:1039B000E3604A6041F83C40C8F80C4083100124A1
:1039C0009C40944200F28A80144206D120F0030009
:1039D0006400144200F10400FAD007EBC009CC46A1
:1039E0008046DCF80C108C4507D173E1002A80F288
:1039F0008181C9688C4500F06D814B6823F0030319
:103A00005A1B0F2AF2DD0C46D1F80CC054F8088F6F
:103A10004B1945F001054D6042F00101C8F80CC09A
:103A20003046CCF808807B613B61C3F80CE0C3F8FA
:103A300008E059609A5000F061FA1FE0102921D87F
:103A400000F05AFA1025062302207E4F07EB83036D
:103A5000A3F108025C68944200F045816368E16864
:103A6000A56823F00303234430465A68E96042F016
:103A700001028D605A6000F041FA0834204603B01C
:103A8000BDE8F08F00240C232046336003B0BDE86E
:103A9000F08F80234FF0400E3F2049E770465DE7EE
:103AA0002344E1685A68A56842F00102E9603046A3
:103AB0008D605A6000F022FA0834204603B0BDE859
:103AC000F08F234430465A6842F001025A6000F0F9
:103AD00015FA0834204603B0BDE8F08FBC6863686F
:103AE00023F00308A84504D3C5EB08030F2B00F30C
:103AF0008C80554BDFF860911A68D9F8003001339B
:103B00002A4404EB080A00F0608102F580520F326B
:103B100022F47F6222F00F0211463046019200F03B
:103B2000EFF9B0F1FF3F8346019A00F058818245DA
:103B300000F2FC80454B1968DA451144196000F029
:103B40005381D9F80000DFF810E101301BBFCAEB48
:103B50000B0A5144CEF800B019601BF0070100F0C9
:103B60001781C1F10800C1F58051834408315A44DE
:103B7000C2F30B02C2EB010949463046019300F043
:103B8000BFF9431C019B00F03F81CBEB00024A448C
:103B900042F001021968C7F808B04944BC42CBF8AA
:103BA00004201960DFF8A49016D0B8F10F0F40F28E
:103BB000FD806268A8F10C0323F00703E01802F00F
:103BC00001024FF0050E1A430F2B6260C0F804E0AB
:103BD000C0F808E000F21C811D4BBC681A689142D5
:103BE00088BF19601B4B1A689142626888BF1960D0
:103BF00022F003029542A2EB050301D80F2B04DC4F
:103C0000304600F07BF9002438E7621943F00103E5
:103C100045F0010565603046BA60536000F06EF90A
:103C20000834204603B0BDE8F08F142B71D9542B13
:103C300000F2A480280B00F16F0E4FEA4E036E30A5
:103C400076E600BFD48EFF1F3C9CFF1F409CFF1FE9
:103C5000389CFF1F349CFF1FE092FF1F5A0A042A62
:103C60005ED9142A00F2B38002F15C0149005B3294
:103C700007EB810C57F82110DFF8DC81ACF1080C60
:103C80008C4500F088804A6822F00302934202D2F9
:103C900089688C45F7D1D1F80CC07A68C4F80CC09B
:103CA000A160CCF80840CC6088E6631942F00107B7
:103CB00045F00105656030464B610B61C3F80CE0CF
:103CC000C3F808E05F609A50083400F017F9D5E6B1
:103CD0004A6873E608F1010818F0030F0CF1080CAC
:103CE0007FF47FAE30E0DC68A34208BF02303FF4CF
:103CF00035AEB3E60B440C465A68C96854F8085F01
:103D000042F001025A603046E9608D6000F0F6F83A
:103D1000B4E603F15C0E03F15B004FEA4E0307E6E5
:103D20009A0902F1390149003832A1E7BC424A4BF5
:103D30003FF400AF9C68626822F003025AE759F82A
:103D40000839994540F0828010F0030F00F1FF30F0
:103D5000F5D17B6823EA04037B6064009C423FF654
:103D6000BDAE002C3FF4BAAE1C4240467FF435AEE7
:103D700064001C4200F10400FAD02EE6B3F5AA7FDD
:103D800018D8E80B00F1780E4FEA4E037730CFE5F4
:103D90004FF48051EBE60121D8F80430921001FA7B
:103DA00002F21A43C8F80420614677E70123CBF8F2
:103DB000043025E740F25452934220D8A80C00F179
:103DC0007D0E4FEA4E037C30B2E51032A4E6542A51
:103DD00026D81A0B02F16F0149006E3248E7BC6821
:103DE000626822F0030205E7CAF30B0000287FF4A3
:103DF000A8AE4244BB6842F001025A60ECE6FE23E2
:103E00004FF07F0E7E2093E501224FF00009C1E6BE
:103E100004F10801304600F049F9D9F80010DBE65A
:103E2000B2F5AA7F05D8DA0B02F1780149007732A2
:103E30001EE740F254518A4205D89A0C02F17D01E6
:103E400049007C3214E7FE217E2211E77B6884E77B
:103E5000E808431C5B00F8E5D48EFF1F70B48407AC
:103E600046D0541E002A41D0CDB2034602E0621E65
:103E7000E4B3144603F8015B9A07F8D1032C2ED95A
:103E8000CDB245EA05250F2C45EA054519D903F1C0
:103E900010022646103E0F2E42F8105C42F80C5CD1
:103EA00042F8085C42F8045C02F11002F2D8A4F176
:103EB000100222F00F0204F00F041032032C1344FE
:103EC0000DD91E462246043A032A46F8045BFAD866
:103ED000221F22F003020432134404F003042CB125
:103EE000C9B21C4403F8011BA342FBD170BC70474C
:103EF00014460346C2E700BF704700BF704700BFCB
:103F000038B5074C0023054608462360FEF7FAF84B
:103F1000431C00D038BD2368002BFBD02B6038BD7C
:103F20007C9CFF1F2DE9F047254C2568D5F84841BA
:103F30000646884692469946C4B360681F2817DC37
:103F4000431C76B104EB80050122C5F888A0D4F8A3
:103F5000881182401143022EC4F88811C5F80891D7
:103F60001ED00230636044F820800020BDE8F08756
:103F7000144B03B34FF4C870FFF7B0FC0446D0B144
:103F8000D5F84831002780E88800C5F84841384610
:103F90000123C4F88871C4F88C71002EE1D0D1E7F8
:103FA000D4F88C110A43C4F88C21DAE705F5A6741D
:103FB000C5F84841C1E74FF0FF30BDE8F08700BFCA
:103FC0001C450000DD380000024B13B1024800F030
:103FD00005B8704700000000E93F000000230146DB
:103FE0001A461846FFF79EBF38B5074D074C2C1BE5
:103FF000A41005D0013C55F8043D9847002CF9D198
:10400000BDE8384000F0B4BA000000000000000035
:10401000F8B5234F0C460646FFF76EFFBB685D6898
:1040200025F00305291B01F6EF7121F47F6121F0D2
:104030000F01A1F58054B4F5805F07DB0021304605
:10404000FFF75EFFBB682B44984204D03046FFF771
:1040500055FF0020F8BD61423046FFF751FF0130A7
:104060000DD0104BBA6819682D1B45F0010530467C
:10407000091B55601960FFF741FF0120F8BD0021C1
:104080003046FFF73DFFBA68831A0F2BDEDD064C82
:104090000449246843F00103001B53600860D5E71E
:1040A000D48EFF1F409CFF1FE092FF1F002945D0C8
:1040B0002DE9F0410D468046FFF71EFF55F8047CC0
:1040C0006A4927F00103A5F10804E2188E685068D8
:1040D000B24220F0030062D0FE0750600BD455F8C6
:1040E000087CE41B01F1080EA56875453B446FD0C0
:1040F000E768EF60BD6015186D68ED0742D543F0C5
:1041000001026260E350B3F5007F18D2DB085A1C4D
:104110004D6851F83270A76001209B1000FA03F33C
:1041200001EBC2001D430838E0604D6041F83240A9
:10413000FC604046BDE8F041FFF7E0BE70475A0A18
:10414000042A53D89A0902F139077F0002F1380591
:1041500001EB870051F827204449083890424DD0A0
:10416000516821F003018B4202D292689042F7D14C
:10417000D068E060A2608460D4604046BDE8F04151
:10418000FFF7BCBE95683A4FBD4203443FD0D068AC
:10419000E86043F0010285606260E350B3E7FF0727
:1041A000034407D455F8082CA41A1344A068E26805
:1041B000C26090602F4A126843F001009342606031
:1041C0008C60B6D32C4B40461968FFF721FFB0E74F
:1041D00011184968C90744D49168D268CA60034479
:1041E00043F0010091606060E350A2E7142A17D801
:1041F00002F15C077F0002F15B05A9E7AA104B689A
:10420000012505FA02F213434B600246B1E743F081
:1042100001024C610C61E560A5606260E35088E7D3
:10422000542A06D81A0B02F16F077F0002F16E05BF
:104230008EE7B2F5AA7F06D8DA0B02F178077F0085
:1042400002F1770584E740F25450824206D89A0C76
:1042500002F17D077F0002F17C0579E7FE277E25CC
:1042600076E743F001026260E35062E7D48EFF1FFD
:10427000DC8EFF1FDC92FF1F3C9CFF1F1B1C25FFD9
:1042800004000001FFFF04000001FEFEFFFF00002C
:10429000FEFEFFFF3C80044000100000041A0000F6
:1042A000FF7F000011100000D90D00000C08000075
:1042B00000020000000200000B07000040020000A6
:1042C000000200000D0E000040020000000200008D
:1042D0000A020906141715160F000000000200005C
:1042E00000020000000200000002000000020000C6
:1042F00000020000000200000002000000020000B6
:10430000010102020404080810000000000000007F
:10431000000000006D150000A1330000DD0D00005D
:10432000E10D000034800440400000001211FFFF46
:10433000FF02020000001310FFFFFF020200000056
:104340001800000034800440800000001EFFFFFFC2
:10435000FF02000000001DFFFFFFFF020000000041
:104360001900000000000000000000004D180000CF
:1043700075180000DD0D0000491800000518000048
:104380001118000031180000050E08090D0C060771
:104390000F0400130393050E08090D0C06070F0404
:1043A000FFFFC585848687C4FFFF001303931A921D
:1043B00017FFFFFF4008FE4340A004404408FE43AF
:1043C00044A004400018FE4300C004403000FE43F7
:1043D000309004403400FE43349004401C18FE43E7
:1043E0001CC004401018FE4310C004400818FE43CF
:1043F00008C004400C18FE430CC004400C10FE43DF
:104400000CB004401010FE4310B004401810FE43DE
:1044100018B004401C10FE431CB004401410FE43AE
:1044200014B004400418FE4304C004400010FE43CE
:1044300000B004400008FE4300A004400408FE430E
:1044400004A004400C08FE430CA004400808FE43EE
:1044500008A004401418FE4314C004401818FE437A
:1044600018C004400410FE4304B004400810FE438A
:1044700008B004401400FE43149004404C08FE436E
:104480004CA004400420FE4304D004402410FE430A
:1044900024B004402010FE4320B004402810FE4306
:1044A00028B004402C10FE432CB004400020FE43F2
:1044B00000D004404808FE4348A004401000FE43DA
:1044C000109004400015191500010000048AFF1F18
:1044D0001200000000020000308AFF1F43000000AD
:1044E000000300008C8AFF1F000000000103090484
:1044F000188AFF1F0000000002030904748AFF1FCE
:104500000000000003030904908AFF1F0000000060
:10451000000000000000000000000000A88AFF1F4B
:10452000F8B500BFF8BC08BC9E467047C93F000004
:1045300035040000D9090000A10C0000B90C0000EE
:10454000E90C0000010D0000190D0000310D000004
:10455000490D0000610D0000790D0000910D000073
:10456000A90D0000C10D0000E50D0000891200003A
:04457000F8B500BFDB
:1045740038B5084B1C681C6054B1074D94FAA4F379
:10458400B3FA83F355F823309847631E1C40F5D1E2
:1045940038BD00BFA0D00440E889FF1F38B5084BE0
:1045A4001C681C6054B1074D94FAA4F3B3FA83F366
:1045B40055F823309847631E1C40F5D138BD00BF21
:1045C400A0C00440C889FF1F38B5084B1C681C6094
:1045D40054B1074D94FAA4F3B3FA83F355F8233096
:1045E4009847631E1C40F5D138BD00BFA0B00440FD
:1045F4009889FF1F38B5084B1C681C6054B1074DDF
:1046040094FAA4F3B3FA83F355F823309847631E5E
:104614001C40F5D138BD00BFA0A004404889FF1F4D
:1046240038B5084B1C681C6054B1074D94FAA4F3C8
:10463400B3FA83F355F823309847631E1C40F5D131
:1046440038BD00BFA09004401089FF1F0000000087
:104654000A0000000D00000000C002409442000067
:104664000000000000000000000000000000000046
:10467400000000000000000000000000FFFFFFFF3A
:104684006C43000000000000E8030000000000008C
:104694000060064024430000000000000000000009
:1046A4000000000000000000000000000000000006
:1046B40000000000000000000000000000000000F6
:1046C40000000000000000000000000000000000E6
:1046D40000000000000000000000000000000000D6
:1046E4000000000000000000000000006C43000017
:1046F40000000000E8030000000000000070064015
:10470400444300000000000000000000000000001E
:104714000000000000000000000000000000000095
:104724000000000000000000000000000000000085
:104734000000000000000000000000000000000075
:104744000000000000000000000000000000000065
:104754000000000000000000FF0A0400809CFF1F0E
:1047640031210000312100003121000031210000FD
:1047740031210000312100003121000031210000ED
:1047840031210000312100003121000031210000DD
:1047940031210000312100003121000031210000CD
:1047A40031210000312100003121000031210000BD
:1047B40031210000312100003121000031210000AD
:1047C400312100003121000031210000312100009D
:1047D400312100003121000031210000312100008D
:1047E400312100003121000031210000312100007D
:1047F400312100003121000031210000312100006D
:10480400312100003121000031210000312100005C
:10481400312100003121000031210000312100004C
:10482400312100003121000031210000312100003C
:10483400312100003121000031210000312100002C
:10484400FFFFFFFFB9320000B9320000B9320000A7
:10485400B93200001201010102000040C0168304B5
:104864000002010203010000180354006500650002
:104874006E00730079006400750069006E006F00BB
:1048840009024300020100C03209040000010202CF
:10489400010005240010010524010101042402067D
:1048A40005240600010705820310004009040100E5
:1048B400020A000000070503024000000705840205
:1048C400400000001603550053004200200053002E
:1048D40065007200690061006C00000004030904B3
:1048E4000C030000000000000000000000000000B5
:1048F400000000000000000000000000948DFF1F75
:10490400FC8DFF1F648EFF1F0000000000000000EC
:104914000000000000000000000000000000000093
:104924000000000000000000000000000000000083
:104934000000000000000000000000000000000073
:104944000000000000000000000000000000000063
:104954000000000000000000000000000000000053
:104964000000000000000000000000000000000043
:104974000000000000000000000000000000000033
:104984000000000000000000000000000000000023
:104994000000000000000000000000000000000013
:1049A40001000000000000000E33CDAB34126DE6B0
:1049B400ECDE05000B000000000000000000000019
:1049C40000000000000000000000000000000000E3
:1049D40000000000000000000000000000000000D3
:1049E40000000000000000000000000000000000C3
:1049F40000000000000000000000000000000000B3
:104D2400A88AFF1F0000000000000000D48EFF1FAF
:104D3400D48EFF1FDC8EFF1FDC8EFF1FE48EFF1F4F
:104D4400E48EFF1FEC8EFF1FEC8EFF1FF48EFF1FFF
:104D5400F48EFF1FFC8EFF1FFC8EFF1F048FFF1FAE
:104D6400048FFF1F0C8FFF1F0C8FFF1F148FFF1F5B
:104D7400148FFF1F1C8FFF1F1C8FFF1F248FFF1F0B
:104D8400248FFF1F2C8FFF1F2C8FFF1F348FFF1FBB
:104D9400348FFF1F3C8FFF1F3C8FFF1F448FFF1F6B
:104DA400448FFF1F4C8FFF1F4C8FFF1F548FFF1F1B
:104DB400548FFF1F5C8FFF1F5C8FFF1F648FFF1FCB
:104DC400648FFF1F6C8FFF1F6C8FFF1F748FFF1F7B
:104DD400748FFF1F7C8FFF1F7C8FFF1F848FFF1F2B
:104DE400848FFF1F8C8FFF1F8C8FFF1F948FFF1FDB
:104DF400948FFF1F9C8FFF1F9C8FFF1FA48FFF1F8B
:104E0400A48FFF1FAC8FFF1FAC8FFF1FB48FFF1F3A
:104E1400B48FFF1FBC8FFF1FBC8FFF1FC48FFF1FEA
:104E2400C48FFF1FCC8FFF1FCC8FFF1FD48FFF1F9A
:104E3400D48FFF1FDC8FFF1FDC8FFF1FE48FFF1F4A
:104E4400E48FFF1FEC8FFF1FEC8FFF1FF48FFF1FFA
:104E5400F48FFF1FFC8FFF1FFC8FFF1F0490FF1FA9
:104E64000490FF1F0C90FF1F0C90FF1F1490FF1F56
:104E74001490FF1F1C90FF1F1C90FF1F2490FF1F06
:104E84002490FF1F2C90FF1F2C90FF1F3490FF1FB6
:104E94003490FF1F3C90FF1F3C90FF1F4490FF1F66
:104EA4004490FF1F4C90FF1F4C90FF1F5490FF1F16
:104EB4005490FF1F5C90FF1F5C90FF1F6490FF1FC6
:104EC4006490FF1F6C90FF1F6C90FF1F7490FF1F76
:104ED4007490FF1F7C90FF1F7C90FF1F8490FF1F26
:104EE4008490FF1F8C90FF1F8C90FF1F9490FF1FD6
:104EF4009490FF1F9C90FF1F9C90FF1FA490FF1F86
:104F0400A490FF1FAC90FF1FAC90FF1FB490FF1F35
:104F1400B490FF1FBC90FF1FBC90FF1FC490FF1FE5
:104F2400C490FF1FCC90FF1FCC90FF1FD490FF1F95
:104F3400D490FF1FDC90FF1FDC90FF1FE490FF1F45
:104F4400E490FF1FEC90FF1FEC90FF1FF490FF1FF5
:104F5400F490FF1FFC90FF1FFC90FF1F0491FF1FA4
:104F64000491FF1F0C91FF1F0C91FF1F1491FF1F51
:104F74001491FF1F1C91FF1F1C91FF1F2491FF1F01
:104F84002491FF1F2C91FF1F2C91FF1F3491FF1FB1
:104F94003491FF1F3C91FF1F3C91FF1F4491FF1F61
:104FA4004491FF1F4C91FF1F4C91FF1F5491FF1F11
:104FB4005491FF1F5C91FF1F5C91FF1F6491FF1FC1
:104FC4006491FF1F6C91FF1F6C91FF1F7491FF1F71
:104FD4007491FF1F7C91FF1F7C91FF1F8491FF1F21
:104FE4008491FF1F8C91FF1F8C91FF1F9491FF1FD1
:104FF4009491FF1F9C91FF1F9C91FF1FA491FF1F81
:10500400A491FF1FAC91FF1FAC91FF1FB491FF1F30
:10501400B491FF1FBC91FF1FBC91FF1FC491FF1FE0
:10502400C491FF1FCC91FF1FCC91FF1FD491FF1F90
:10503400D491FF1FDC91FF1FDC91FF1FE491FF1F40
:10504400E491FF1FEC91FF1FEC91FF1FF491FF1FF0
:10505400F491FF1FFC91FF1FFC91FF1F0492FF1F9F
:105064000492FF1F0C92FF1F0C92FF1F1492FF1F4C
:105074001492FF1F1C92FF1F1C92FF1F2492FF1FFC
:105084002492FF1F2C92FF1F2C92FF1F3492FF1FAC
:105094003492FF1F3C92FF1F3C92FF1F4492FF1F5C
:1050A4004492FF1F4C92FF1F4C92FF1F5492FF1F0C
:1050B4005492FF1F5C92FF1F5C92FF1F6492FF1FBC
:1050C4006492FF1F6C92FF1F6C92FF1F7492FF1F6C
:1050D4007492FF1F7C92FF1F7C92FF1F8492FF1F1C
:1050E4008492FF1F8C92FF1F8C92FF1F9492FF1FCC
:1050F4009492FF1F9C92FF1F9C92FF1FA492FF1F7C
:10510400A492FF1FAC92FF1FAC92FF1FB492FF1F2B
:10511400B492FF1FBC92FF1FBC92FF1FC492FF1FDB
:10512400C492FF1FCC92FF1FCC92FF1F000002000D
:04513400FFFFFFFF7B
:00000001FF
